{
    "address": "0x232e858670B966a7BBA290ec5b34fC2884CB01f3",
    "abi": [
        {
            "inputs": [],
            "stateMutability": "nonpayable",
            "type": "constructor"
        },
        {
            "anonymous": false,
            "inputs": [
                {
                    "indexed": true,
                    "internalType": "address",
                    "name": "owner",
                    "type": "address"
                },
                {
                    "indexed": true,
                    "internalType": "address",
                    "name": "approved",
                    "type": "address"
                },
                {
                    "indexed": true,
                    "internalType": "uint256",
                    "name": "tokenId",
                    "type": "uint256"
                }
            ],
            "name": "Approval",
            "type": "event"
        },
        {
            "anonymous": false,
            "inputs": [
                {
                    "indexed": true,
                    "internalType": "address",
                    "name": "owner",
                    "type": "address"
                },
                {
                    "indexed": true,
                    "internalType": "address",
                    "name": "operator",
                    "type": "address"
                },
                {
                    "indexed": false,
                    "internalType": "bool",
                    "name": "approved",
                    "type": "bool"
                }
            ],
            "name": "ApprovalForAll",
            "type": "event"
        },
        {
            "anonymous": false,
            "inputs": [
                {
                    "indexed": true,
                    "internalType": "uint256",
                    "name": "tokenId",
                    "type": "uint256"
                },
                {
                    "indexed": false,
                    "internalType": "address payable[]",
                    "name": "owners",
                    "type": "address[]"
                },
                {
                    "indexed": false,
                    "internalType": "uint256",
                    "name": "price",
                    "type": "uint256"
                },
                {
                    "indexed": false,
                    "internalType": "bool",
                    "name": "currentlyListed",
                    "type": "bool"
                },
                {
                    "indexed": false,
                    "internalType": "bool",
                    "name": "_isSoulBound",
                    "type": "bool"
                }
            ],
            "name": "TokenListedSuccess",
            "type": "event"
        },
        {
            "anonymous": false,
            "inputs": [
                {
                    "indexed": true,
                    "internalType": "address",
                    "name": "from",
                    "type": "address"
                },
                {
                    "indexed": true,
                    "internalType": "address",
                    "name": "to",
                    "type": "address"
                },
                {
                    "indexed": true,
                    "internalType": "uint256",
                    "name": "tokenId",
                    "type": "uint256"
                }
            ],
            "name": "Transfer",
            "type": "event"
        },
        {
            "inputs": [
                {
                    "internalType": "address",
                    "name": "to",
                    "type": "address"
                },
                {
                    "internalType": "uint256",
                    "name": "tokenId",
                    "type": "uint256"
                }
            ],
            "name": "approve",
            "outputs": [],
            "stateMutability": "nonpayable",
            "type": "function"
        },
        {
            "inputs": [
                {
                    "internalType": "address",
                    "name": "owner",
                    "type": "address"
                }
            ],
            "name": "balanceOf",
            "outputs": [
                {
                    "internalType": "uint256",
                    "name": "",
                    "type": "uint256"
                }
            ],
            "stateMutability": "view",
            "type": "function"
        },
        {
            "inputs": [
                {
                    "internalType": "uint256",
                    "name": "tokenId",
                    "type": "uint256"
                },
                {
                    "internalType": "bool",
                    "name": "action",
                    "type": "bool"
                }
            ],
            "name": "changeListing",
            "outputs": [],
            "stateMutability": "payable",
            "type": "function"
        },
        {
            "inputs": [
                {
                    "internalType": "string",
                    "name": "tokenURI",
                    "type": "string"
                },
                {
                    "internalType": "uint256",
                    "name": "price",
                    "type": "uint256"
                },
                {
                    "internalType": "address payable[]",
                    "name": "to",
                    "type": "address[]"
                },
                {
                    "internalType": "bool",
                    "name": "isSoulBound",
                    "type": "bool"
                },
                {
                    "internalType": "bool",
                    "name": "iscurrentListed",
                    "type": "bool"
                }
            ],
            "name": "createToken",
            "outputs": [
                {
                    "internalType": "uint256",
                    "name": "",
                    "type": "uint256"
                }
            ],
            "stateMutability": "payable",
            "type": "function"
        },
        {
            "inputs": [
                {
                    "internalType": "uint256",
                    "name": "tokenId",
                    "type": "uint256"
                }
            ],
            "name": "executeSale",
            "outputs": [],
            "stateMutability": "payable",
            "type": "function"
        },
        {
            "inputs": [],
            "name": "getAllListedNFTs",
            "outputs": [
                {
                    "components": [
                        {
                            "internalType": "uint256",
                            "name": "tokenId",
                            "type": "uint256"
                        },
                        {
                            "internalType": "uint256",
                            "name": "price",
                            "type": "uint256"
                        },
                        {
                            "internalType": "bool",
                            "name": "currentlyListed",
                            "type": "bool"
                        },
                        {
                            "internalType": "bool",
                            "name": "_isSoulBound",
                            "type": "bool"
                        }
                    ],
                    "internalType": "struct NFTHUB.ListedToken[]",
                    "name": "",
                    "type": "tuple[]"
                }
            ],
            "stateMutability": "view",
            "type": "function"
        },
        {
            "inputs": [],
            "name": "getAllNFTs",
            "outputs": [
                {
                    "components": [
                        {
                            "internalType": "uint256",
                            "name": "tokenId",
                            "type": "uint256"
                        },
                        {
                            "internalType": "uint256",
                            "name": "price",
                            "type": "uint256"
                        },
                        {
                            "internalType": "bool",
                            "name": "currentlyListed",
                            "type": "bool"
                        },
                        {
                            "internalType": "bool",
                            "name": "_isSoulBound",
                            "type": "bool"
                        }
                    ],
                    "internalType": "struct NFTHUB.ListedToken[]",
                    "name": "",
                    "type": "tuple[]"
                }
            ],
            "stateMutability": "view",
            "type": "function"
        },
        {
            "inputs": [
                {
                    "internalType": "uint256",
                    "name": "tokenId",
                    "type": "uint256"
                }
            ],
            "name": "getApproved",
            "outputs": [
                {
                    "internalType": "address",
                    "name": "",
                    "type": "address"
                }
            ],
            "stateMutability": "view",
            "type": "function"
        },
        {
            "inputs": [],
            "name": "getCurrentToken",
            "outputs": [
                {
                    "internalType": "uint256",
                    "name": "",
                    "type": "uint256"
                }
            ],
            "stateMutability": "view",
            "type": "function"
        },
        {
            "inputs": [],
            "name": "getLatestIdToListedToken",
            "outputs": [
                {
                    "components": [
                        {
                            "internalType": "uint256",
                            "name": "tokenId",
                            "type": "uint256"
                        },
                        {
                            "internalType": "uint256",
                            "name": "price",
                            "type": "uint256"
                        },
                        {
                            "internalType": "bool",
                            "name": "currentlyListed",
                            "type": "bool"
                        },
                        {
                            "internalType": "bool",
                            "name": "_isSoulBound",
                            "type": "bool"
                        }
                    ],
                    "internalType": "struct NFTHUB.ListedToken",
                    "name": "",
                    "type": "tuple"
                }
            ],
            "stateMutability": "view",
            "type": "function"
        },
        {
            "inputs": [],
            "name": "getListPrice",
            "outputs": [
                {
                    "internalType": "uint256",
                    "name": "",
                    "type": "uint256"
                }
            ],
            "stateMutability": "view",
            "type": "function"
        },
        {
            "inputs": [
                {
                    "internalType": "uint256",
                    "name": "tokenId",
                    "type": "uint256"
                }
            ],
            "name": "getListedTokenForId",
            "outputs": [
                {
                    "components": [
                        {
                            "internalType": "uint256",
                            "name": "tokenId",
                            "type": "uint256"
                        },
                        {
                            "internalType": "uint256",
                            "name": "price",
                            "type": "uint256"
                        },
                        {
                            "internalType": "bool",
                            "name": "currentlyListed",
                            "type": "bool"
                        },
                        {
                            "internalType": "bool",
                            "name": "_isSoulBound",
                            "type": "bool"
                        }
                    ],
                    "internalType": "struct NFTHUB.ListedToken",
                    "name": "",
                    "type": "tuple"
                }
            ],
            "stateMutability": "view",
            "type": "function"
        },
        {
            "inputs": [],
            "name": "getMyNFTs",
            "outputs": [
                {
                    "components": [
                        {
                            "internalType": "uint256",
                            "name": "tokenId",
                            "type": "uint256"
                        },
                        {
                            "internalType": "uint256",
                            "name": "price",
                            "type": "uint256"
                        },
                        {
                            "internalType": "bool",
                            "name": "currentlyListed",
                            "type": "bool"
                        },
                        {
                            "internalType": "bool",
                            "name": "_isSoulBound",
                            "type": "bool"
                        }
                    ],
                    "internalType": "struct NFTHUB.ListedToken[]",
                    "name": "",
                    "type": "tuple[]"
                }
            ],
            "stateMutability": "view",
            "type": "function"
        },
        {
            "inputs": [
                {
                    "internalType": "uint256",
                    "name": "tokenId",
                    "type": "uint256"
                }
            ],
            "name": "getOwnerFromId",
            "outputs": [
                {
                    "internalType": "address[]",
                    "name": "",
                    "type": "address[]"
                }
            ],
            "stateMutability": "view",
            "type": "function"
        },
        {
            "inputs": [
                {
                    "internalType": "address",
                    "name": "owner",
                    "type": "address"
                },
                {
                    "internalType": "address",
                    "name": "operator",
                    "type": "address"
                }
            ],
            "name": "isApprovedForAll",
            "outputs": [
                {
                    "internalType": "bool",
                    "name": "",
                    "type": "bool"
                }
            ],
            "stateMutability": "view",
            "type": "function"
        },
        {
            "inputs": [],
            "name": "name",
            "outputs": [
                {
                    "internalType": "string",
                    "name": "",
                    "type": "string"
                }
            ],
            "stateMutability": "view",
            "type": "function"
        },
        {
            "inputs": [
                {
                    "internalType": "uint256",
                    "name": "tokenId",
                    "type": "uint256"
                }
            ],
            "name": "ownerOf",
            "outputs": [
                {
                    "internalType": "address",
                    "name": "",
                    "type": "address"
                }
            ],
            "stateMutability": "view",
            "type": "function"
        },
        {
            "inputs": [
                {
                    "internalType": "address",
                    "name": "from",
                    "type": "address"
                },
                {
                    "internalType": "address",
                    "name": "to",
                    "type": "address"
                },
                {
                    "internalType": "uint256",
                    "name": "tokenId",
                    "type": "uint256"
                }
            ],
            "name": "safeTransferFrom",
            "outputs": [],
            "stateMutability": "nonpayable",
            "type": "function"
        },
        {
            "inputs": [
                {
                    "internalType": "address",
                    "name": "from",
                    "type": "address"
                },
                {
                    "internalType": "address",
                    "name": "to",
                    "type": "address"
                },
                {
                    "internalType": "uint256",
                    "name": "tokenId",
                    "type": "uint256"
                },
                {
                    "internalType": "bytes",
                    "name": "data",
                    "type": "bytes"
                }
            ],
            "name": "safeTransferFrom",
            "outputs": [],
            "stateMutability": "nonpayable",
            "type": "function"
        },
        {
            "inputs": [
                {
                    "internalType": "address",
                    "name": "operator",
                    "type": "address"
                },
                {
                    "internalType": "bool",
                    "name": "approved",
                    "type": "bool"
                }
            ],
            "name": "setApprovalForAll",
            "outputs": [],
            "stateMutability": "nonpayable",
            "type": "function"
        },
        {
            "inputs": [
                {
                    "internalType": "bytes4",
                    "name": "interfaceId",
                    "type": "bytes4"
                }
            ],
            "name": "supportsInterface",
            "outputs": [
                {
                    "internalType": "bool",
                    "name": "",
                    "type": "bool"
                }
            ],
            "stateMutability": "view",
            "type": "function"
        },
        {
            "inputs": [],
            "name": "symbol",
            "outputs": [
                {
                    "internalType": "string",
                    "name": "",
                    "type": "string"
                }
            ],
            "stateMutability": "view",
            "type": "function"
        },
        {
            "inputs": [
                {
                    "internalType": "uint256",
                    "name": "tokenId",
                    "type": "uint256"
                }
            ],
            "name": "tokenURI",
            "outputs": [
                {
                    "internalType": "string",
                    "name": "",
                    "type": "string"
                }
            ],
            "stateMutability": "view",
            "type": "function"
        },
        {
            "inputs": [
                {
                    "internalType": "address",
                    "name": "from",
                    "type": "address"
                },
                {
                    "internalType": "address",
                    "name": "to",
                    "type": "address"
                },
                {
                    "internalType": "uint256",
                    "name": "tokenId",
                    "type": "uint256"
                }
            ],
            "name": "transferFrom",
            "outputs": [],
            "stateMutability": "nonpayable",
            "type": "function"
        },
        {
            "inputs": [
                {
                    "internalType": "uint256",
                    "name": "_listPrice",
                    "type": "uint256"
                }
            ],
            "name": "updateListPrice",
            "outputs": [],
            "stateMutability": "payable",
            "type": "function"
        }
    ],
    "bytecode": "0x608060405266038d7ea4c68000600a553480156200001c57600080fd5b506040518060400160405280600681526020017f4e465448554200000000000000000000000000000000000000000000000000008152506040518060400160405280600281526020017f4e4800000000000000000000000000000000000000000000000000000000000081525081600090816200009a919062000370565b508060019081620000ac919062000370565b50505033600960006101000a81548173ffffffffffffffffffffffffffffffffffffffff021916908373ffffffffffffffffffffffffffffffffffffffff16021790555062000457565b600081519050919050565b7f4e487b7100000000000000000000000000000000000000000000000000000000600052604160045260246000fd5b7f4e487b7100000000000000000000000000000000000000000000000000000000600052602260045260246000fd5b600060028204905060018216806200017857607f821691505b6020821081036200018e576200018d62000130565b5b50919050565b60008190508160005260206000209050919050565b60006020601f8301049050919050565b600082821b905092915050565b600060088302620001f87fffffffffffffffffffffffffffffffffffffffffffffffffffffffffffffffff82620001b9565b620002048683620001b9565b95508019841693508086168417925050509392505050565b6000819050919050565b6000819050919050565b6000620002516200024b62000245846200021c565b62000226565b6200021c565b9050919050565b6000819050919050565b6200026d8362000230565b620002856200027c8262000258565b848454620001c6565b825550505050565b600090565b6200029c6200028d565b620002a981848462000262565b505050565b5b81811015620002d157620002c560008262000292565b600181019050620002af565b5050565b601f8211156200032057620002ea8162000194565b620002f584620001a9565b8101602085101562000305578190505b6200031d6200031485620001a9565b830182620002ae565b50505b505050565b600082821c905092915050565b6000620003456000198460080262000325565b1980831691505092915050565b600062000360838362000332565b9150826002028217905092915050565b6200037b82620000f6565b67ffffffffffffffff81111562000397576200039662000101565b5b620003a382546200015f565b620003b0828285620002d5565b600060209050601f831160018114620003e85760008415620003d3578287015190505b620003df858262000352565b8655506200044f565b601f198416620003f88662000194565b60005b828110156200042257848901518255600182019150602085019450602081019050620003fb565b868310156200044257848901516200043e601f89168262000332565b8355505b6001600288020188555050505b505050505050565b614d1c80620004676000396000f3fe6080604052600436106101665760003560e01c806370a08231116100d1578063b88d4fde1161008a578063d1a88ae511610064578063d1a88ae51461053e578063e0391b0914610569578063e985e9c514610594578063ef2d1746146105d157610166565b8063b88d4fde146104bc578063c322579c146104e5578063c87b56dd1461050157610166565b806370a08231146103a25780638e264590146103df57806395d89b411461041c5780639b1225c414610447578063a0639f6f14610463578063a22cb4651461049357610166565b806342842e0e1161012357806342842e0e1461027e5780634782060d146102a75780634b58ffaa146102e4578063629cb2e41461030f5780636352211e1461033a57806368f1945f1461037757610166565b80630181d0821461016b57806301ffc9a71461018757806306fdde03146101c4578063081812fc146101ef578063095ea7b31461022c57806323b872dd14610255575b600080fd5b61018560048036038101906101809190612f60565b6105fc565b005b34801561019357600080fd5b506101ae60048036038101906101a99190612ff8565b610884565b6040516101bb9190613034565b60405180910390f35b3480156101d057600080fd5b506101d9610966565b6040516101e691906130df565b60405180910390f35b3480156101fb57600080fd5b5061021660048036038101906102119190613101565b6109f8565b604051610223919061316f565b60405180910390f35b34801561023857600080fd5b50610253600480360381019061024e91906131b6565b610a3e565b005b34801561026157600080fd5b5061027c600480360381019061027791906131f6565b610b55565b005b34801561028a57600080fd5b506102a560048036038101906102a091906131f6565b610bb5565b005b3480156102b357600080fd5b506102ce60048036038101906102c99190613101565b610bd5565b6040516102db9190613307565b60405180910390f35b3480156102f057600080fd5b506102f9610c76565b604051610306919061344b565b60405180910390f35b34801561031b57600080fd5b50610324610dd5565b604051610331919061344b565b60405180910390f35b34801561034657600080fd5b50610361600480360381019061035c9190613101565b611027565b60405161036e919061316f565b60405180910390f35b34801561038357600080fd5b5061038c6110ad565b604051610399919061347c565b60405180910390f35b3480156103ae57600080fd5b506103c960048036038101906103c49190613497565b6110b7565b6040516103d6919061347c565b60405180910390f35b3480156103eb57600080fd5b5061040660048036038101906104019190613101565b61116e565b6040516104139190613519565b60405180910390f35b34801561042857600080fd5b506104316111e5565b60405161043e91906130df565b60405180910390f35b610461600480360381019061045c9190613101565b611277565b005b61047d6004803603810190610478919061376f565b6116a7565b60405161048a919061347c565b60405180910390f35b34801561049f57600080fd5b506104ba60048036038101906104b59190613822565b6117b0565b005b3480156104c857600080fd5b506104e360048036038101906104de9190613903565b6117c6565b005b6104ff60048036038101906104fa9190613101565b611828565b005b34801561050d57600080fd5b5061052860048036038101906105239190613101565b6118c2565b60405161053591906130df565b60405180910390f35b34801561054a57600080fd5b506105536119d4565b6040516105609190613519565b60405180910390f35b34801561057557600080fd5b5061057e611a58565b60405161058b919061344b565b60405180910390f35b3480156105a057600080fd5b506105bb60048036038101906105b69190613986565b611b99565b6040516105c89190613034565b60405180910390f35b3480156105dd57600080fd5b506105e6611c2d565b6040516105f3919061347c565b60405180910390f35b600c600083815260200190815260200160002060003373ffffffffffffffffffffffffffffffffffffffff1673ffffffffffffffffffffffffffffffffffffffff16815260200190815260200160002060009054906101000a900460ff16610699576040517f08c379a000000000000000000000000000000000000000000000000000000000815260040161069090613a12565b60405180910390fd5b6001600d600084815260200190815260200160002080549050146106f2576040517f08c379a00000000000000000000000000000000000000000000000000000000081526004016106e990613aa4565b60405180910390fd5b60001515600b600084815260200190815260200160002060020160019054906101000a900460ff1615151461075c576040517f08c379a000000000000000000000000000000000000000000000000000000000815260040161075390613b10565b60405180910390fd5b60011515600b600084815260200190815260200160002060020160009054906101000a900460ff161515148015610797575060011515811515145b156107d7576040517f08c379a00000000000000000000000000000000000000000000000000000000081526004016107ce90613b7c565b60405180910390fd5b60001515600b600084815260200190815260200160002060020160009054906101000a900460ff161515148015610812575060001515811515145b15610852576040517f08c379a000000000000000000000000000000000000000000000000000000000815260040161084990613be8565b60405180910390fd5b80600b600084815260200190815260200160002060020160006101000a81548160ff0219169083151502179055505050565b60007f80ac58cd000000000000000000000000000000000000000000000000000000007bffffffffffffffffffffffffffffffffffffffffffffffffffffffff1916827bffffffffffffffffffffffffffffffffffffffffffffffffffffffff1916148061094f57507f5b5e139f000000000000000000000000000000000000000000000000000000007bffffffffffffffffffffffffffffffffffffffffffffffffffffffff1916827bffffffffffffffffffffffffffffffffffffffffffffffffffffffff1916145b8061095f575061095e82611c3e565b5b9050919050565b60606000805461097590613c37565b80601f01602080910402602001604051908101604052809291908181526020018280546109a190613c37565b80156109ee5780601f106109c3576101008083540402835291602001916109ee565b820191906000526020600020905b8154815290600101906020018083116109d157829003601f168201915b5050505050905090565b6000610a0382611ca8565b6004600083815260200190815260200160002060009054906101000a900473ffffffffffffffffffffffffffffffffffffffff169050919050565b6000610a4982611027565b90508073ffffffffffffffffffffffffffffffffffffffff168373ffffffffffffffffffffffffffffffffffffffff1603610ab9576040517f08c379a0000000000000000000000000000000000000000000000000000000008152600401610ab090613cda565b60405180910390fd5b8073ffffffffffffffffffffffffffffffffffffffff16610ad8611cf3565b73ffffffffffffffffffffffffffffffffffffffff161480610b075750610b0681610b01611cf3565b611b99565b5b610b46576040517f08c379a0000000000000000000000000000000000000000000000000000000008152600401610b3d90613d6c565b60405180910390fd5b610b508383611cfb565b505050565b610b66610b60611cf3565b82611db4565b610ba5576040517f08c379a0000000000000000000000000000000000000000000000000000000008152600401610b9c90613dfe565b60405180910390fd5b610bb0838383611e49565b505050565b610bd0838383604051806020016040528060008152506117c6565b505050565b6060600d6000838152602001908152602001600020805480602002602001604051908101604052809291908181526020018280548015610c6a57602002820191906000526020600020905b8160009054906101000a900473ffffffffffffffffffffffffffffffffffffffff1673ffffffffffffffffffffffffffffffffffffffff1681526020019060010190808311610c20575b50505050509050919050565b60606000610c846007612142565b905060008167ffffffffffffffff811115610ca257610ca161353e565b5b604051908082528060200260200182016040528015610cdb57816020015b610cc8612e0b565b815260200190600190039081610cc05790505b50905060008080600090505b84811015610dca57600181610cfc9190613e4d565b91506000600b60008481526020019081526020016000209050600115158160020160009054906101000a900460ff16151503610db6578060405180608001604052908160008201548152602001600182015481526020016002820160009054906101000a900460ff161515151581526020016002820160019054906101000a900460ff161515151581525050858581518110610d9b57610d9a613e81565b5b6020026020010181905250600184610db39190613e4d565b93505b508080610dc290613eb0565b915050610ce7565b508294505050505090565b60606000610de36007612142565b9050600080600080600090505b84811015610e8a57600c6000600183610e099190613e4d565b815260200190815260200160002060003373ffffffffffffffffffffffffffffffffffffffff1673ffffffffffffffffffffffffffffffffffffffff16815260200190815260200160002060009054906101000a900460ff1615610e7757600184610e749190613e4d565b93505b8080610e8290613eb0565b915050610df0565b5060008367ffffffffffffffff811115610ea757610ea661353e565b5b604051908082528060200260200182016040528015610ee057816020015b610ecd612e0b565b815260200190600190039081610ec55790505b50905060005b8581101561101b57600c6000600183610eff9190613e4d565b815260200190815260200160002060003373ffffffffffffffffffffffffffffffffffffffff1673ffffffffffffffffffffffffffffffffffffffff16815260200190815260200160002060009054906101000a900460ff161561100857600181610f6a9190613e4d565b92506000600b600085815260200190815260200160002090508060405180608001604052908160008201548152602001600182015481526020016002820160009054906101000a900460ff161515151581526020016002820160019054906101000a900460ff161515151581525050838681518110610fec57610feb613e81565b5b60200260200101819052506001856110049190613e4d565b9450505b808061101390613eb0565b915050610ee6565b50809550505050505090565b60008061103383612150565b9050600073ffffffffffffffffffffffffffffffffffffffff168173ffffffffffffffffffffffffffffffffffffffff16036110a4576040517f08c379a000000000000000000000000000000000000000000000000000000000815260040161109b90613f44565b60405180910390fd5b80915050919050565b6000600a54905090565b60008073ffffffffffffffffffffffffffffffffffffffff168273ffffffffffffffffffffffffffffffffffffffff1603611127576040517f08c379a000000000000000000000000000000000000000000000000000000000815260040161111e90613fd6565b60405180910390fd5b600360008373ffffffffffffffffffffffffffffffffffffffff1673ffffffffffffffffffffffffffffffffffffffff168152602001908152602001600020549050919050565b611176612e0b565b600b600083815260200190815260200160002060405180608001604052908160008201548152602001600182015481526020016002820160009054906101000a900460ff161515151581526020016002820160019054906101000a900460ff1615151515815250509050919050565b6060600180546111f490613c37565b80601f016020809104026020016040519081016040528092919081815260200182805461122090613c37565b801561126d5780601f106112425761010080835404028352916020019161126d565b820191906000526020600020905b81548152906001019060200180831161125057829003601f168201915b5050505050905090565b600b600082815260200190815260200160002060020160019054906101000a900460ff16156112db576040517f08c379a00000000000000000000000000000000000000000000000000000000081526004016112d290614068565b60405180910390fd5b6000600b600083815260200190815260200160002060010154905080341015611339576040517f08c379a0000000000000000000000000000000000000000000000000000000008152600401611330906140fa565b60405180910390fd5b600b600083815260200190815260200160002060020160009054906101000a900460ff1661139c576040517f08c379a000000000000000000000000000000000000000000000000000000000815260040161139390614166565b60405180910390fd5b6001600d600084815260200190815260200160002080549050146113f5576040517f08c379a00000000000000000000000000000000000000000000000000000000081526004016113ec90613aa4565b60405180910390fd5b6000600d600084815260200190815260200160002060008154811061141d5761141c613e81565b5b9060005260206000200160009054906101000a900473ffffffffffffffffffffffffffffffffffffffff169050611454600861218d565b61145f813385611e49565b6000600c60008581526020019081526020016000206000600d600087815260200190815260200160002060008154811061149c5761149b613e81565b5b9060005260206000200160009054906101000a900473ffffffffffffffffffffffffffffffffffffffff1673ffffffffffffffffffffffffffffffffffffffff1673ffffffffffffffffffffffffffffffffffffffff16815260200190815260200160002060006101000a81548160ff0219169083151502179055506001600c600085815260200190815260200160002060003373ffffffffffffffffffffffffffffffffffffffff1673ffffffffffffffffffffffffffffffffffffffff16815260200190815260200160002060006101000a81548160ff02191690831515021790555033600d60008581526020019081526020016000206000815481106115a8576115a7613e81565b5b9060005260206000200160006101000a81548173ffffffffffffffffffffffffffffffffffffffff021916908373ffffffffffffffffffffffffffffffffffffffff160217905550600960009054906101000a900473ffffffffffffffffffffffffffffffffffffffff1673ffffffffffffffffffffffffffffffffffffffff166108fc600a549081150290604051600060405180830381858888f1935050505015801561165a573d6000803e3d6000fd5b508073ffffffffffffffffffffffffffffffffffffffff166108fc839081150290604051600060405180830381858888f193505050501580156116a1573d6000803e3d6000fd5b50505050565b600082156116f75760001515821515146116f6576040517f08c379a00000000000000000000000000000000000000000000000000000000081526004016116ed906141f8565b60405180910390fd5b5b600184511115611749576000151582151514611748576040517f08c379a000000000000000000000000000000000000000000000000000000000815260040161173f9061428a565b60405180910390fd5b5b611753600761218d565b600061175f6007612142565b905060008560008151811061177757611776613e81565b5b6020026020010151905061178b81836121a3565b61179582896121c1565b6117a2828887878a61222e565b819250505095945050505050565b6117c26117bb611cf3565b8383612472565b5050565b6117d76117d1611cf3565b83611db4565b611816576040517f08c379a000000000000000000000000000000000000000000000000000000000815260040161180d90613dfe565b60405180910390fd5b611822848484846125de565b50505050565b3373ffffffffffffffffffffffffffffffffffffffff16600960009054906101000a900473ffffffffffffffffffffffffffffffffffffffff1673ffffffffffffffffffffffffffffffffffffffff16146118b8576040517f08c379a00000000000000000000000000000000000000000000000000000000081526004016118af9061431c565b60405180910390fd5b80600a8190555050565b60606118cd82611ca8565b60006006600084815260200190815260200160002080546118ed90613c37565b80601f016020809104026020016040519081016040528092919081815260200182805461191990613c37565b80156119665780601f1061193b57610100808354040283529160200191611966565b820191906000526020600020905b81548152906001019060200180831161194957829003601f168201915b50505050509050600061197761263a565b9050600081510361198c5781925050506119cf565b6000825111156119c15780826040516020016119a9929190614378565b604051602081830303815290604052925050506119cf565b6119ca84612651565b925050505b919050565b6119dc612e0b565b60006119e86007612142565b9050600b600082815260200190815260200160002060405180608001604052908160008201548152602001600182015481526020016002820160009054906101000a900460ff161515151581526020016002820160019054906101000a900460ff16151515158152505091505090565b60606000611a666007612142565b905060008167ffffffffffffffff811115611a8457611a8361353e565b5b604051908082528060200260200182016040528015611abd57816020015b611aaa612e0b565b815260200190600190039081611aa25790505b50905060008080600090505b84811015611b8e57600181611ade9190613e4d565b91506000600b600084815260200190815260200160002090508060405180608001604052908160008201548152602001600182015481526020016002820160009054906101000a900460ff161515151581526020016002820160019054906101000a900460ff161515151581525050858581518110611b6057611b5f613e81565b5b6020026020010181905250600184611b789190613e4d565b9350508080611b8690613eb0565b915050611ac9565b508294505050505090565b6000600560008473ffffffffffffffffffffffffffffffffffffffff1673ffffffffffffffffffffffffffffffffffffffff16815260200190815260200160002060008373ffffffffffffffffffffffffffffffffffffffff1673ffffffffffffffffffffffffffffffffffffffff16815260200190815260200160002060009054906101000a900460ff16905092915050565b6000611c396007612142565b905090565b60007f01ffc9a7000000000000000000000000000000000000000000000000000000007bffffffffffffffffffffffffffffffffffffffffffffffffffffffff1916827bffffffffffffffffffffffffffffffffffffffffffffffffffffffff1916149050919050565b611cb1816126b9565b611cf0576040517f08c379a0000000000000000000000000000000000000000000000000000000008152600401611ce790613f44565b60405180910390fd5b50565b600033905090565b816004600083815260200190815260200160002060006101000a81548173ffffffffffffffffffffffffffffffffffffffff021916908373ffffffffffffffffffffffffffffffffffffffff160217905550808273ffffffffffffffffffffffffffffffffffffffff16611d6e83611027565b73ffffffffffffffffffffffffffffffffffffffff167f8c5be1e5ebec7d5bd14f71427d1e84f3dd0314c0f7b2291e5b200ac8c7c3b92560405160405180910390a45050565b600080611dc083611027565b90508073ffffffffffffffffffffffffffffffffffffffff168473ffffffffffffffffffffffffffffffffffffffff161480611e025750611e018185611b99565b5b80611e4057508373ffffffffffffffffffffffffffffffffffffffff16611e28846109f8565b73ffffffffffffffffffffffffffffffffffffffff16145b91505092915050565b8273ffffffffffffffffffffffffffffffffffffffff16611e6982611027565b73ffffffffffffffffffffffffffffffffffffffff1614611ebf576040517f08c379a0000000000000000000000000000000000000000000000000000000008152600401611eb69061440e565b60405180910390fd5b600073ffffffffffffffffffffffffffffffffffffffff168273ffffffffffffffffffffffffffffffffffffffff1603611f2e576040517f08c379a0000000000000000000000000000000000000000000000000000000008152600401611f25906144a0565b60405180910390fd5b611f3b83838360016126fa565b8273ffffffffffffffffffffffffffffffffffffffff16611f5b82611027565b73ffffffffffffffffffffffffffffffffffffffff1614611fb1576040517f08c379a0000000000000000000000000000000000000000000000000000000008152600401611fa89061440e565b60405180910390fd5b6004600082815260200190815260200160002060006101000a81549073ffffffffffffffffffffffffffffffffffffffff02191690556001600360008573ffffffffffffffffffffffffffffffffffffffff1673ffffffffffffffffffffffffffffffffffffffff168152602001908152602001600020600082825403925050819055506001600360008473ffffffffffffffffffffffffffffffffffffffff1673ffffffffffffffffffffffffffffffffffffffff16815260200190815260200160002060008282540192505081905550816002600083815260200190815260200160002060006101000a81548173ffffffffffffffffffffffffffffffffffffffff021916908373ffffffffffffffffffffffffffffffffffffffff160217905550808273ffffffffffffffffffffffffffffffffffffffff168473ffffffffffffffffffffffffffffffffffffffff167fddf252ad1be2c89b69c2b068fc378daa952ba7f163c4a11628f55a4df523b3ef60405160405180910390a461213d8383836001612700565b505050565b600081600001549050919050565b60006002600083815260200190815260200160002060009054906101000a900473ffffffffffffffffffffffffffffffffffffffff169050919050565b6001816000016000828254019250508190555050565b6121bd828260405180602001604052806000815250612706565b5050565b6121ca826126b9565b612209576040517f08c379a000000000000000000000000000000000000000000000000000000000815260040161220090614532565b60405180910390fd5b8060066000848152602001908152602001600020908161222991906146fe565b505050565b61223734612761565b61224084612761565b61224b600a54612761565b600a54341015612290576040517f08c379a000000000000000000000000000000000000000000000000000000000815260040161228790614842565b60405180910390fd5b600084116122d3576040517f08c379a00000000000000000000000000000000000000000000000000000000081526004016122ca906148d4565b60405180910390fd5b60405180608001604052808681526020018581526020018315158152602001841515815250600b6000878152602001908152602001600020600082015181600001556020820151816001015560408201518160020160006101000a81548160ff02191690831515021790555060608201518160020160016101000a81548160ff02191690831515021790555090505060005b8151811015612404576001600c6000888152602001908152602001600020600084848151811061239857612397613e81565b5b602002602001015173ffffffffffffffffffffffffffffffffffffffff1673ffffffffffffffffffffffffffffffffffffffff16815260200190815260200160002060006101000a81548160ff02191690831515021790555080806123fc90613eb0565b915050612365565b5080600d6000878152602001908152602001600020908051906020019061242c929190612e37565b50847f41541b152c58ca24a9ab7bb343e60d72c377d304284348781b874cd3ec7a74658286858760405161246394939291906149b2565b60405180910390a25050505050565b8173ffffffffffffffffffffffffffffffffffffffff168373ffffffffffffffffffffffffffffffffffffffff16036124e0576040517f08c379a00000000000000000000000000000000000000000000000000000000081526004016124d790614a4a565b60405180910390fd5b80600560008573ffffffffffffffffffffffffffffffffffffffff1673ffffffffffffffffffffffffffffffffffffffff16815260200190815260200160002060008473ffffffffffffffffffffffffffffffffffffffff1673ffffffffffffffffffffffffffffffffffffffff16815260200190815260200160002060006101000a81548160ff0219169083151502179055508173ffffffffffffffffffffffffffffffffffffffff168373ffffffffffffffffffffffffffffffffffffffff167f17307eab39ab6107e8899845ad3d59bd9653f200f220920489ca2b5937696c31836040516125d19190613034565b60405180910390a3505050565b6125e9848484611e49565b6125f5848484846127fa565b612634576040517f08c379a000000000000000000000000000000000000000000000000000000000815260040161262b90614adc565b60405180910390fd5b50505050565b606060405180602001604052806000815250905090565b606061265c82611ca8565b600061266661263a565b9050600081511161268657604051806020016040528060008152506126b1565b8061269084612981565b6040516020016126a1929190614378565b6040516020818303038152906040525b915050919050565b60008073ffffffffffffffffffffffffffffffffffffffff166126db83612150565b73ffffffffffffffffffffffffffffffffffffffff1614159050919050565b50505050565b50505050565b6127108383612a4f565b61271d60008484846127fa565b61275c576040517f08c379a000000000000000000000000000000000000000000000000000000000815260040161275390614adc565b60405180910390fd5b505050565b6127f781604051602401612775919061347c565b6040516020818303038152906040527ff82c50f1000000000000000000000000000000000000000000000000000000007bffffffffffffffffffffffffffffffffffffffffffffffffffffffff19166020820180517bffffffffffffffffffffffffffffffffffffffffffffffffffffffff8381831617835250505050612c6c565b50565b600061281b8473ffffffffffffffffffffffffffffffffffffffff16612c95565b15612974578373ffffffffffffffffffffffffffffffffffffffff1663150b7a02612844611cf3565b8786866040518563ffffffff1660e01b81526004016128669493929190614b51565b6020604051808303816000875af19250505080156128a257506040513d601f19601f8201168201806040525081019061289f9190614bb2565b60015b612924573d80600081146128d2576040519150601f19603f3d011682016040523d82523d6000602084013e6128d7565b606091505b50600081510361291c576040517f08c379a000000000000000000000000000000000000000000000000000000000815260040161291390614adc565b60405180910390fd5b805181602001fd5b63150b7a0260e01b7bffffffffffffffffffffffffffffffffffffffffffffffffffffffff1916817bffffffffffffffffffffffffffffffffffffffffffffffffffffffff191614915050612979565b600190505b949350505050565b60606000600161299084612cb8565b01905060008167ffffffffffffffff8111156129af576129ae61353e565b5b6040519080825280601f01601f1916602001820160405280156129e15781602001600182028036833780820191505090505b509050600082602001820190505b600115612a44578080600190039150507f3031323334353637383961626364656600000000000000000000000000000000600a86061a8153600a8581612a3857612a37614bdf565b5b049450600085036129ef575b819350505050919050565b600073ffffffffffffffffffffffffffffffffffffffff168273ffffffffffffffffffffffffffffffffffffffff1603612abe576040517f08c379a0000000000000000000000000000000000000000000000000000000008152600401612ab590614c5a565b60405180910390fd5b612ac7816126b9565b15612b07576040517f08c379a0000000000000000000000000000000000000000000000000000000008152600401612afe90614cc6565b60405180910390fd5b612b156000838360016126fa565b612b1e816126b9565b15612b5e576040517f08c379a0000000000000000000000000000000000000000000000000000000008152600401612b5590614cc6565b60405180910390fd5b6001600360008473ffffffffffffffffffffffffffffffffffffffff1673ffffffffffffffffffffffffffffffffffffffff16815260200190815260200160002060008282540192505081905550816002600083815260200190815260200160002060006101000a81548173ffffffffffffffffffffffffffffffffffffffff021916908373ffffffffffffffffffffffffffffffffffffffff160217905550808273ffffffffffffffffffffffffffffffffffffffff16600073ffffffffffffffffffffffffffffffffffffffff167fddf252ad1be2c89b69c2b068fc378daa952ba7f163c4a11628f55a4df523b3ef60405160405180910390a4612c68600083836001612700565b5050565b60008151905060006a636f6e736f6c652e6c6f679050602083016000808483855afa5050505050565b6000808273ffffffffffffffffffffffffffffffffffffffff163b119050919050565b600080600090507a184f03e93ff9f4daa797ed6e38ed64bf6a1f0100000000000000008310612d16577a184f03e93ff9f4daa797ed6e38ed64bf6a1f0100000000000000008381612d0c57612d0b614bdf565b5b0492506040810190505b6d04ee2d6d415b85acef81000000008310612d53576d04ee2d6d415b85acef81000000008381612d4957612d48614bdf565b5b0492506020810190505b662386f26fc100008310612d8257662386f26fc100008381612d7857612d77614bdf565b5b0492506010810190505b6305f5e1008310612dab576305f5e1008381612da157612da0614bdf565b5b0492506008810190505b6127108310612dd0576127108381612dc657612dc5614bdf565b5b0492506004810190505b60648310612df35760648381612de957612de8614bdf565b5b0492506002810190505b600a8310612e02576001810190505b80915050919050565b604051806080016040528060008152602001600081526020016000151581526020016000151581525090565b828054828255906000526020600020908101928215612eb0579160200282015b82811115612eaf5782518260006101000a81548173ffffffffffffffffffffffffffffffffffffffff021916908373ffffffffffffffffffffffffffffffffffffffff16021790555091602001919060010190612e57565b5b509050612ebd9190612ec1565b5090565b5b80821115612eda576000816000905550600101612ec2565b5090565b6000604051905090565b600080fd5b600080fd5b6000819050919050565b612f0581612ef2565b8114612f1057600080fd5b50565b600081359050612f2281612efc565b92915050565b60008115159050919050565b612f3d81612f28565b8114612f4857600080fd5b50565b600081359050612f5a81612f34565b92915050565b60008060408385031215612f7757612f76612ee8565b5b6000612f8585828601612f13565b9250506020612f9685828601612f4b565b9150509250929050565b60007fffffffff0000000000000000000000000000000000000000000000000000000082169050919050565b612fd581612fa0565b8114612fe057600080fd5b50565b600081359050612ff281612fcc565b92915050565b60006020828403121561300e5761300d612ee8565b5b600061301c84828501612fe3565b91505092915050565b61302e81612f28565b82525050565b60006020820190506130496000830184613025565b92915050565b600081519050919050565b600082825260208201905092915050565b60005b8381101561308957808201518184015260208101905061306e565b60008484015250505050565b6000601f19601f8301169050919050565b60006130b18261304f565b6130bb818561305a565b93506130cb81856020860161306b565b6130d481613095565b840191505092915050565b600060208201905081810360008301526130f981846130a6565b905092915050565b60006020828403121561311757613116612ee8565b5b600061312584828501612f13565b91505092915050565b600073ffffffffffffffffffffffffffffffffffffffff82169050919050565b60006131598261312e565b9050919050565b6131698161314e565b82525050565b60006020820190506131846000830184613160565b92915050565b6131938161314e565b811461319e57600080fd5b50565b6000813590506131b08161318a565b92915050565b600080604083850312156131cd576131cc612ee8565b5b60006131db858286016131a1565b92505060206131ec85828601612f13565b9150509250929050565b60008060006060848603121561320f5761320e612ee8565b5b600061321d868287016131a1565b935050602061322e868287016131a1565b925050604061323f86828701612f13565b9150509250925092565b600081519050919050565b600082825260208201905092915050565b6000819050602082019050919050565b61327e8161314e565b82525050565b60006132908383613275565b60208301905092915050565b6000602082019050919050565b60006132b482613249565b6132be8185613254565b93506132c983613265565b8060005b838110156132fa5781516132e18882613284565b97506132ec8361329c565b9250506001810190506132cd565b5085935050505092915050565b6000602082019050818103600083015261332181846132a9565b905092915050565b600081519050919050565b600082825260208201905092915050565b6000819050602082019050919050565b61335e81612ef2565b82525050565b61336d81612f28565b82525050565b6080820160008201516133896000850182613355565b50602082015161339c6020850182613355565b5060408201516133af6040850182613364565b5060608201516133c26060850182613364565b50505050565b60006133d48383613373565b60808301905092915050565b6000602082019050919050565b60006133f882613329565b6134028185613334565b935061340d83613345565b8060005b8381101561343e57815161342588826133c8565b9750613430836133e0565b925050600181019050613411565b5085935050505092915050565b6000602082019050818103600083015261346581846133ed565b905092915050565b61347681612ef2565b82525050565b6000602082019050613491600083018461346d565b92915050565b6000602082840312156134ad576134ac612ee8565b5b60006134bb848285016131a1565b91505092915050565b6080820160008201516134da6000850182613355565b5060208201516134ed6020850182613355565b5060408201516135006040850182613364565b5060608201516135136060850182613364565b50505050565b600060808201905061352e60008301846134c4565b92915050565b600080fd5b600080fd5b7f4e487b7100000000000000000000000000000000000000000000000000000000600052604160045260246000fd5b61357682613095565b810181811067ffffffffffffffff821117156135955761359461353e565b5b80604052505050565b60006135a8612ede565b90506135b4828261356d565b919050565b600067ffffffffffffffff8211156135d4576135d361353e565b5b6135dd82613095565b9050602081019050919050565b82818337600083830152505050565b600061360c613607846135b9565b61359e565b90508281526020810184848401111561362857613627613539565b5b6136338482856135ea565b509392505050565b600082601f8301126136505761364f613534565b5b81356136608482602086016135f9565b91505092915050565b600067ffffffffffffffff8211156136845761368361353e565b5b602082029050602081019050919050565b600080fd5b60006136a58261312e565b9050919050565b6136b58161369a565b81146136c057600080fd5b50565b6000813590506136d2816136ac565b92915050565b60006136eb6136e684613669565b61359e565b9050808382526020820190506020840283018581111561370e5761370d613695565b5b835b81811015613737578061372388826136c3565b845260208401935050602081019050613710565b5050509392505050565b600082601f83011261375657613755613534565b5b81356137668482602086016136d8565b91505092915050565b600080600080600060a0868803121561378b5761378a612ee8565b5b600086013567ffffffffffffffff8111156137a9576137a8612eed565b5b6137b58882890161363b565b95505060206137c688828901612f13565b945050604086013567ffffffffffffffff8111156137e7576137e6612eed565b5b6137f388828901613741565b935050606061380488828901612f4b565b925050608061381588828901612f4b565b9150509295509295909350565b6000806040838503121561383957613838612ee8565b5b6000613847858286016131a1565b925050602061385885828601612f4b565b9150509250929050565b600067ffffffffffffffff82111561387d5761387c61353e565b5b61388682613095565b9050602081019050919050565b60006138a66138a184613862565b61359e565b9050828152602081018484840111156138c2576138c1613539565b5b6138cd8482856135ea565b509392505050565b600082601f8301126138ea576138e9613534565b5b81356138fa848260208601613893565b91505092915050565b6000806000806080858703121561391d5761391c612ee8565b5b600061392b878288016131a1565b945050602061393c878288016131a1565b935050604061394d87828801612f13565b925050606085013567ffffffffffffffff81111561396e5761396d612eed565b5b61397a878288016138d5565b91505092959194509250565b6000806040838503121561399d5761399c612ee8565b5b60006139ab858286016131a1565b92505060206139bc858286016131a1565b9150509250929050565b7f596f7520617265206e6f7420746865206f776e65722100000000000000000000600082015250565b60006139fc60168361305a565b9150613a07826139c6565b602082019050919050565b60006020820190508181036000830152613a2b816139ef565b9050919050565b7f546865726520617265206d756c7469706c65206f776e6572732c20546869732060008201527f63616e277420626520646f6e6521000000000000000000000000000000000000602082015250565b6000613a8e602e8361305a565b9150613a9982613a32565b604082019050919050565b60006020820190508181036000830152613abd81613a81565b9050919050565b7f536f756c426f756e64204e46542063616e2774206265206c6973746564210000600082015250565b6000613afa601e8361305a565b9150613b0582613ac4565b602082019050919050565b60006020820190508181036000830152613b2981613aed565b9050919050565b7f4e465420697320616c7265616479206c69737465642100000000000000000000600082015250565b6000613b6660168361305a565b9150613b7182613b30565b602082019050919050565b60006020820190508181036000830152613b9581613b59565b9050919050565b7f4e465420697320616c726561647920756e6c6973746564210000000000000000600082015250565b6000613bd260188361305a565b9150613bdd82613b9c565b602082019050919050565b60006020820190508181036000830152613c0181613bc5565b9050919050565b7f4e487b7100000000000000000000000000000000000000000000000000000000600052602260045260246000fd5b60006002820490506001821680613c4f57607f821691505b602082108103613c6257613c61613c08565b5b50919050565b7f4552433732313a20617070726f76616c20746f2063757272656e74206f776e6560008201527f7200000000000000000000000000000000000000000000000000000000000000602082015250565b6000613cc460218361305a565b9150613ccf82613c68565b604082019050919050565b60006020820190508181036000830152613cf381613cb7565b9050919050565b7f4552433732313a20617070726f76652063616c6c6572206973206e6f7420746f60008201527f6b656e206f776e6572206f7220617070726f76656420666f7220616c6c000000602082015250565b6000613d56603d8361305a565b9150613d6182613cfa565b604082019050919050565b60006020820190508181036000830152613d8581613d49565b9050919050565b7f4552433732313a2063616c6c6572206973206e6f7420746f6b656e206f776e6560008201527f72206f7220617070726f76656400000000000000000000000000000000000000602082015250565b6000613de8602d8361305a565b9150613df382613d8c565b604082019050919050565b60006020820190508181036000830152613e1781613ddb565b9050919050565b7f4e487b7100000000000000000000000000000000000000000000000000000000600052601160045260246000fd5b6000613e5882612ef2565b9150613e6383612ef2565b9250828201905080821115613e7b57613e7a613e1e565b5b92915050565b7f4e487b7100000000000000000000000000000000000000000000000000000000600052603260045260246000fd5b6000613ebb82612ef2565b91507fffffffffffffffffffffffffffffffffffffffffffffffffffffffffffffffff8203613eed57613eec613e1e565b5b600182019050919050565b7f4552433732313a20696e76616c696420746f6b656e2049440000000000000000600082015250565b6000613f2e60188361305a565b9150613f3982613ef8565b602082019050919050565b60006020820190508181036000830152613f5d81613f21565b9050919050565b7f4552433732313a2061646472657373207a65726f206973206e6f74206120766160008201527f6c6964206f776e65720000000000000000000000000000000000000000000000602082015250565b6000613fc060298361305a565b9150613fcb82613f64565b604082019050919050565b60006020820190508181036000830152613fef81613fb3565b9050919050565b7f54686973204e465420697320736f756c626f756e642c205468752063616e277460008201527f2062652053656c6c210000000000000000000000000000000000000000000000602082015250565b600061405260298361305a565b915061405d82613ff6565b604082019050919050565b6000602082019050818103600083015261408181614045565b9050919050565b7f506c65617365207375626d6974207468652061736b696e67207072696365206960008201527f6e206f7264657220746f20636f6d706c65746520746865207075726368617365602082015250565b60006140e460408361305a565b91506140ef82614088565b604082019050919050565b60006020820190508181036000830152614113816140d7565b9050919050565b7f54686973204e4654206973206e6f74204c697374656420466f722053656c6c21600082015250565b600061415060208361305a565b915061415b8261411a565b602082019050919050565b6000602082019050818103600083015261417f81614143565b9050919050565b7f49742063616e2774206265206c6973746564206265636175736520697420697360008201527f20736f756c626f756e6421000000000000000000000000000000000000000000602082015250565b60006141e2602b8361305a565b91506141ed82614186565b604082019050919050565b60006020820190508181036000830152614211816141d5565b9050919050565b7f49742063616e2774206265206c6973746564206265636175736520746865726560008201527f20617265206d756c7469706c65206f776e657273210000000000000000000000602082015250565b600061427460358361305a565b915061427f82614218565b604082019050919050565b600060208201905081810360008301526142a381614267565b9050919050565b7f4f6e6c79206f776e65722063616e20757064617465206c697374696e6720707260008201527f6963650000000000000000000000000000000000000000000000000000000000602082015250565b600061430660238361305a565b9150614311826142aa565b604082019050919050565b60006020820190508181036000830152614335816142f9565b9050919050565b600081905092915050565b60006143528261304f565b61435c818561433c565b935061436c81856020860161306b565b80840191505092915050565b60006143848285614347565b91506143908284614347565b91508190509392505050565b7f4552433732313a207472616e736665722066726f6d20696e636f72726563742060008201527f6f776e6572000000000000000000000000000000000000000000000000000000602082015250565b60006143f860258361305a565b91506144038261439c565b604082019050919050565b60006020820190508181036000830152614427816143eb565b9050919050565b7f4552433732313a207472616e7366657220746f20746865207a65726f2061646460008201527f7265737300000000000000000000000000000000000000000000000000000000602082015250565b600061448a60248361305a565b91506144958261442e565b604082019050919050565b600060208201905081810360008301526144b98161447d565b9050919050565b7f45524337323155524953746f726167653a2055524920736574206f66206e6f6e60008201527f6578697374656e7420746f6b656e000000000000000000000000000000000000602082015250565b600061451c602e8361305a565b9150614527826144c0565b604082019050919050565b6000602082019050818103600083015261454b8161450f565b9050919050565b60008190508160005260206000209050919050565b60006020601f8301049050919050565b600082821b905092915050565b6000600883026145b47fffffffffffffffffffffffffffffffffffffffffffffffffffffffffffffffff82614577565b6145be8683614577565b95508019841693508086168417925050509392505050565b6000819050919050565b60006145fb6145f66145f184612ef2565b6145d6565b612ef2565b9050919050565b6000819050919050565b614615836145e0565b61462961462182614602565b848454614584565b825550505050565b600090565b61463e614631565b61464981848461460c565b505050565b5b8181101561466d57614662600082614636565b60018101905061464f565b5050565b601f8211156146b25761468381614552565b61468c84614567565b8101602085101561469b578190505b6146af6146a785614567565b83018261464e565b50505b505050565b600082821c905092915050565b60006146d5600019846008026146b7565b1980831691505092915050565b60006146ee83836146c4565b9150826002028217905092915050565b6147078261304f565b67ffffffffffffffff8111156147205761471f61353e565b5b61472a8254613c37565b614735828285614671565b600060209050601f8311600181146147685760008415614756578287015190505b61476085826146e2565b8655506147c8565b601f19841661477686614552565b60005b8281101561479e57848901518255600182019150602085019450602081019050614779565b868310156147bb57848901516147b7601f8916826146c4565b8355505b6001600288020188555050505b505050505050565b7f486f706566756c6c792073656e64696e672074686520636f727265637420707260008201527f6963650000000000000000000000000000000000000000000000000000000000602082015250565b600061482c60238361305a565b9150614837826147d0565b604082019050919050565b6000602082019050818103600083015261485b8161481f565b9050919050565b7f4d616b652073757265207468652070726963652069736e2774206e656761746960008201527f7665000000000000000000000000000000000000000000000000000000000000602082015250565b60006148be60228361305a565b91506148c982614862565b604082019050919050565b600060208201905081810360008301526148ed816148b1565b9050919050565b600081519050919050565b600082825260208201905092915050565b6000819050602082019050919050565b6149298161369a565b82525050565b600061493b8383614920565b60208301905092915050565b6000602082019050919050565b600061495f826148f4565b61496981856148ff565b935061497483614910565b8060005b838110156149a557815161498c888261492f565b975061499783614947565b925050600181019050614978565b5085935050505092915050565b600060808201905081810360008301526149cc8187614954565b90506149db602083018661346d565b6149e86040830185613025565b6149f56060830184613025565b95945050505050565b7f4552433732313a20617070726f766520746f2063616c6c657200000000000000600082015250565b6000614a3460198361305a565b9150614a3f826149fe565b602082019050919050565b60006020820190508181036000830152614a6381614a27565b9050919050565b7f4552433732313a207472616e7366657220746f206e6f6e20455243373231526560008201527f63656976657220696d706c656d656e7465720000000000000000000000000000602082015250565b6000614ac660328361305a565b9150614ad182614a6a565b604082019050919050565b60006020820190508181036000830152614af581614ab9565b9050919050565b600081519050919050565b600082825260208201905092915050565b6000614b2382614afc565b614b2d8185614b07565b9350614b3d81856020860161306b565b614b4681613095565b840191505092915050565b6000608082019050614b666000830187613160565b614b736020830186613160565b614b80604083018561346d565b8181036060830152614b928184614b18565b905095945050505050565b600081519050614bac81612fcc565b92915050565b600060208284031215614bc857614bc7612ee8565b5b6000614bd684828501614b9d565b91505092915050565b7f4e487b7100000000000000000000000000000000000000000000000000000000600052601260045260246000fd5b7f4552433732313a206d696e7420746f20746865207a65726f2061646472657373600082015250565b6000614c4460208361305a565b9150614c4f82614c0e565b602082019050919050565b60006020820190508181036000830152614c7381614c37565b9050919050565b7f4552433732313a20746f6b656e20616c7265616479206d696e74656400000000600082015250565b6000614cb0601c8361305a565b9150614cbb82614c7a565b602082019050919050565b60006020820190508181036000830152614cdf81614ca3565b905091905056fea2646970667358221220ae81da3f63f40df167068e72117a88d1be97fb37ad2d3a6574c4652083b6bd1664736f6c63430008120033",
    "linkReferences": {},
    "deployedLinkReferences": {}
}