{
  "address": "0x30c9E7Ee64C4603bE641730D1cDeC9A7E6d76Fd6",
  "abi": [
    {
      "inputs": [],
      "stateMutability": "nonpayable",
      "type": "constructor"
    },
    {
      "anonymous": false,
      "inputs": [
        {
          "indexed": true,
          "internalType": "address",
          "name": "owner",
          "type": "address"
        },
        {
          "indexed": true,
          "internalType": "address",
          "name": "approved",
          "type": "address"
        },
        {
          "indexed": true,
          "internalType": "uint256",
          "name": "tokenId",
          "type": "uint256"
        }
      ],
      "name": "Approval",
      "type": "event"
    },
    {
      "anonymous": false,
      "inputs": [
        {
          "indexed": true,
          "internalType": "address",
          "name": "owner",
          "type": "address"
        },
        {
          "indexed": true,
          "internalType": "address",
          "name": "operator",
          "type": "address"
        },
        {
          "indexed": false,
          "internalType": "bool",
          "name": "approved",
          "type": "bool"
        }
      ],
      "name": "ApprovalForAll",
      "type": "event"
    },
    {
      "anonymous": false,
      "inputs": [
        {
          "indexed": true,
          "internalType": "uint256",
          "name": "tokenId",
          "type": "uint256"
        },
        {
          "indexed": false,
          "internalType": "address payable[]",
          "name": "owners",
          "type": "address[]"
        },
        {
          "indexed": false,
          "internalType": "uint256",
          "name": "price",
          "type": "uint256"
        },
        {
          "indexed": false,
          "internalType": "bool",
          "name": "currentlyListed",
          "type": "bool"
        },
        {
          "indexed": false,
          "internalType": "bool",
          "name": "_isSoulBound",
          "type": "bool"
        }
      ],
      "name": "TokenListedSuccess",
      "type": "event"
    },
    {
      "anonymous": false,
      "inputs": [
        {
          "indexed": true,
          "internalType": "address",
          "name": "from",
          "type": "address"
        },
        {
          "indexed": true,
          "internalType": "address",
          "name": "to",
          "type": "address"
        },
        {
          "indexed": true,
          "internalType": "uint256",
          "name": "tokenId",
          "type": "uint256"
        }
      ],
      "name": "Transfer",
      "type": "event"
    },
    {
      "inputs": [
        {
          "internalType": "address",
          "name": "to",
          "type": "address"
        },
        {
          "internalType": "uint256",
          "name": "tokenId",
          "type": "uint256"
        }
      ],
      "name": "approve",
      "outputs": [],
      "stateMutability": "nonpayable",
      "type": "function"
    },
    {
      "inputs": [
        {
          "internalType": "address",
          "name": "owner",
          "type": "address"
        }
      ],
      "name": "balanceOf",
      "outputs": [
        {
          "internalType": "uint256",
          "name": "",
          "type": "uint256"
        }
      ],
      "stateMutability": "view",
      "type": "function"
    },
    {
      "inputs": [
        {
          "internalType": "uint256",
          "name": "tokenId",
          "type": "uint256"
        },
        {
          "internalType": "bool",
          "name": "action",
          "type": "bool"
        }
      ],
      "name": "changeListing",
      "outputs": [],
      "stateMutability": "payable",
      "type": "function"
    },
    {
      "inputs": [
        {
          "internalType": "string",
          "name": "tokenURI",
          "type": "string"
        },
        {
          "internalType": "uint256",
          "name": "price",
          "type": "uint256"
        },
        {
          "internalType": "address payable[]",
          "name": "to",
          "type": "address[]"
        },
        {
          "internalType": "bool",
          "name": "isSoulBound",
          "type": "bool"
        },
        {
          "internalType": "bool",
          "name": "iscurrentListed",
          "type": "bool"
        }
      ],
      "name": "createToken",
      "outputs": [
        {
          "internalType": "uint256",
          "name": "",
          "type": "uint256"
        }
      ],
      "stateMutability": "payable",
      "type": "function"
    },
    {
      "inputs": [
        {
          "internalType": "uint256",
          "name": "tokenId",
          "type": "uint256"
        }
      ],
      "name": "executeSale",
      "outputs": [],
      "stateMutability": "payable",
      "type": "function"
    },
    {
      "inputs": [],
      "name": "getAllListedNFTs",
      "outputs": [
        {
          "components": [
            {
              "internalType": "uint256",
              "name": "tokenId",
              "type": "uint256"
            },
            {
              "internalType": "uint256",
              "name": "price",
              "type": "uint256"
            },
            {
              "internalType": "bool",
              "name": "currentlyListed",
              "type": "bool"
            },
            {
              "internalType": "bool",
              "name": "_isSoulBound",
              "type": "bool"
            }
          ],
          "internalType": "struct NFTHUB.ListedToken[]",
          "name": "",
          "type": "tuple[]"
        }
      ],
      "stateMutability": "view",
      "type": "function"
    },
    {
      "inputs": [],
      "name": "getAllNFTs",
      "outputs": [
        {
          "components": [
            {
              "internalType": "uint256",
              "name": "tokenId",
              "type": "uint256"
            },
            {
              "internalType": "uint256",
              "name": "price",
              "type": "uint256"
            },
            {
              "internalType": "bool",
              "name": "currentlyListed",
              "type": "bool"
            },
            {
              "internalType": "bool",
              "name": "_isSoulBound",
              "type": "bool"
            }
          ],
          "internalType": "struct NFTHUB.ListedToken[]",
          "name": "",
          "type": "tuple[]"
        }
      ],
      "stateMutability": "view",
      "type": "function"
    },
    {
      "inputs": [
        {
          "internalType": "uint256",
          "name": "tokenId",
          "type": "uint256"
        }
      ],
      "name": "getApproved",
      "outputs": [
        {
          "internalType": "address",
          "name": "",
          "type": "address"
        }
      ],
      "stateMutability": "view",
      "type": "function"
    },
    {
      "inputs": [],
      "name": "getCurrentToken",
      "outputs": [
        {
          "internalType": "uint256",
          "name": "",
          "type": "uint256"
        }
      ],
      "stateMutability": "view",
      "type": "function"
    },
    {
      "inputs": [],
      "name": "getLatestIdToListedToken",
      "outputs": [
        {
          "components": [
            {
              "internalType": "uint256",
              "name": "tokenId",
              "type": "uint256"
            },
            {
              "internalType": "uint256",
              "name": "price",
              "type": "uint256"
            },
            {
              "internalType": "bool",
              "name": "currentlyListed",
              "type": "bool"
            },
            {
              "internalType": "bool",
              "name": "_isSoulBound",
              "type": "bool"
            }
          ],
          "internalType": "struct NFTHUB.ListedToken",
          "name": "",
          "type": "tuple"
        }
      ],
      "stateMutability": "view",
      "type": "function"
    },
    {
      "inputs": [],
      "name": "getListPrice",
      "outputs": [
        {
          "internalType": "uint256",
          "name": "",
          "type": "uint256"
        }
      ],
      "stateMutability": "view",
      "type": "function"
    },
    {
      "inputs": [
        {
          "internalType": "uint256",
          "name": "tokenId",
          "type": "uint256"
        }
      ],
      "name": "getListedTokenForId",
      "outputs": [
        {
          "components": [
            {
              "internalType": "uint256",
              "name": "tokenId",
              "type": "uint256"
            },
            {
              "internalType": "uint256",
              "name": "price",
              "type": "uint256"
            },
            {
              "internalType": "bool",
              "name": "currentlyListed",
              "type": "bool"
            },
            {
              "internalType": "bool",
              "name": "_isSoulBound",
              "type": "bool"
            }
          ],
          "internalType": "struct NFTHUB.ListedToken",
          "name": "",
          "type": "tuple"
        }
      ],
      "stateMutability": "view",
      "type": "function"
    },
    {
      "inputs": [],
      "name": "getMyNFTs",
      "outputs": [
        {
          "components": [
            {
              "internalType": "uint256",
              "name": "tokenId",
              "type": "uint256"
            },
            {
              "internalType": "uint256",
              "name": "price",
              "type": "uint256"
            },
            {
              "internalType": "bool",
              "name": "currentlyListed",
              "type": "bool"
            },
            {
              "internalType": "bool",
              "name": "_isSoulBound",
              "type": "bool"
            }
          ],
          "internalType": "struct NFTHUB.ListedToken[]",
          "name": "",
          "type": "tuple[]"
        }
      ],
      "stateMutability": "view",
      "type": "function"
    },
    {
      "inputs": [
        {
          "internalType": "uint256",
          "name": "tokenId",
          "type": "uint256"
        }
      ],
      "name": "getOwnerFromId",
      "outputs": [
        {
          "internalType": "address[]",
          "name": "",
          "type": "address[]"
        }
      ],
      "stateMutability": "view",
      "type": "function"
    },
    {
      "inputs": [
        {
          "internalType": "uint256",
          "name": "tokenId",
          "type": "uint256"
        },
        {
          "internalType": "address",
          "name": "author",
          "type": "address"
        }
      ],
      "name": "getVerificationOfAuthor",
      "outputs": [
        {
          "internalType": "bool",
          "name": "",
          "type": "bool"
        }
      ],
      "stateMutability": "view",
      "type": "function"
    },
    {
      "inputs": [
        {
          "internalType": "address",
          "name": "owner",
          "type": "address"
        },
        {
          "internalType": "address",
          "name": "operator",
          "type": "address"
        }
      ],
      "name": "isApprovedForAll",
      "outputs": [
        {
          "internalType": "bool",
          "name": "",
          "type": "bool"
        }
      ],
      "stateMutability": "view",
      "type": "function"
    },
    {
      "inputs": [],
      "name": "name",
      "outputs": [
        {
          "internalType": "string",
          "name": "",
          "type": "string"
        }
      ],
      "stateMutability": "view",
      "type": "function"
    },
    {
      "inputs": [
        {
          "internalType": "uint256",
          "name": "tokenId",
          "type": "uint256"
        }
      ],
      "name": "ownerOf",
      "outputs": [
        {
          "internalType": "address",
          "name": "",
          "type": "address"
        }
      ],
      "stateMutability": "view",
      "type": "function"
    },
    {
      "inputs": [
        {
          "internalType": "address",
          "name": "from",
          "type": "address"
        },
        {
          "internalType": "address",
          "name": "to",
          "type": "address"
        },
        {
          "internalType": "uint256",
          "name": "tokenId",
          "type": "uint256"
        }
      ],
      "name": "safeTransferFrom",
      "outputs": [],
      "stateMutability": "nonpayable",
      "type": "function"
    },
    {
      "inputs": [
        {
          "internalType": "address",
          "name": "from",
          "type": "address"
        },
        {
          "internalType": "address",
          "name": "to",
          "type": "address"
        },
        {
          "internalType": "uint256",
          "name": "tokenId",
          "type": "uint256"
        },
        {
          "internalType": "bytes",
          "name": "data",
          "type": "bytes"
        }
      ],
      "name": "safeTransferFrom",
      "outputs": [],
      "stateMutability": "nonpayable",
      "type": "function"
    },
    {
      "inputs": [
        {
          "internalType": "address",
          "name": "operator",
          "type": "address"
        },
        {
          "internalType": "bool",
          "name": "approved",
          "type": "bool"
        }
      ],
      "name": "setApprovalForAll",
      "outputs": [],
      "stateMutability": "nonpayable",
      "type": "function"
    },
    {
      "inputs": [
        {
          "internalType": "bytes4",
          "name": "interfaceId",
          "type": "bytes4"
        }
      ],
      "name": "supportsInterface",
      "outputs": [
        {
          "internalType": "bool",
          "name": "",
          "type": "bool"
        }
      ],
      "stateMutability": "view",
      "type": "function"
    },
    {
      "inputs": [],
      "name": "symbol",
      "outputs": [
        {
          "internalType": "string",
          "name": "",
          "type": "string"
        }
      ],
      "stateMutability": "view",
      "type": "function"
    },
    {
      "inputs": [
        {
          "internalType": "uint256",
          "name": "tokenId",
          "type": "uint256"
        }
      ],
      "name": "tokenURI",
      "outputs": [
        {
          "internalType": "string",
          "name": "",
          "type": "string"
        }
      ],
      "stateMutability": "view",
      "type": "function"
    },
    {
      "inputs": [
        {
          "internalType": "address",
          "name": "from",
          "type": "address"
        },
        {
          "internalType": "address",
          "name": "to",
          "type": "address"
        },
        {
          "internalType": "uint256",
          "name": "tokenId",
          "type": "uint256"
        }
      ],
      "name": "transferFrom",
      "outputs": [],
      "stateMutability": "nonpayable",
      "type": "function"
    },
    {
      "inputs": [
        {
          "internalType": "uint256",
          "name": "_listPrice",
          "type": "uint256"
        }
      ],
      "name": "updateListPrice",
      "outputs": [],
      "stateMutability": "payable",
      "type": "function"
    }
  ],
  "bytecode": "0x608060405266038d7ea4c68000600a553480156200001c57600080fd5b506040518060400160405280600681526020017f4e465448554200000000000000000000000000000000000000000000000000008152506040518060400160405280600281526020017f4e4800000000000000000000000000000000000000000000000000000000000081525081600090816200009a919062000370565b508060019081620000ac919062000370565b50505033600960006101000a81548173ffffffffffffffffffffffffffffffffffffffff021916908373ffffffffffffffffffffffffffffffffffffffff16021790555062000457565b600081519050919050565b7f4e487b7100000000000000000000000000000000000000000000000000000000600052604160045260246000fd5b7f4e487b7100000000000000000000000000000000000000000000000000000000600052602260045260246000fd5b600060028204905060018216806200017857607f821691505b6020821081036200018e576200018d62000130565b5b50919050565b60008190508160005260206000209050919050565b60006020601f8301049050919050565b600082821b905092915050565b600060088302620001f87fffffffffffffffffffffffffffffffffffffffffffffffffffffffffffffffff82620001b9565b620002048683620001b9565b95508019841693508086168417925050509392505050565b6000819050919050565b6000819050919050565b6000620002516200024b62000245846200021c565b62000226565b6200021c565b9050919050565b6000819050919050565b6200026d8362000230565b620002856200027c8262000258565b848454620001c6565b825550505050565b600090565b6200029c6200028d565b620002a981848462000262565b505050565b5b81811015620002d157620002c560008262000292565b600181019050620002af565b5050565b601f8211156200032057620002ea8162000194565b620002f584620001a9565b8101602085101562000305578190505b6200031d6200031485620001a9565b830182620002ae565b50505b505050565b600082821c905092915050565b6000620003456000198460080262000325565b1980831691505092915050565b600062000360838362000332565b9150826002028217905092915050565b6200037b82620000f6565b67ffffffffffffffff81111562000397576200039662000101565b5b620003a382546200015f565b620003b0828285620002d5565b600060209050601f831160018114620003e85760008415620003d3578287015190505b620003df858262000352565b8655506200044f565b601f198416620003f88662000194565b60005b828110156200042257848901518255600182019150602085019450602081019050620003fb565b868310156200044257848901516200043e601f89168262000332565b8355505b6001600288020188555050505b505050505050565b61509c80620004676000396000f3fe6080604052600436106101815760003560e01c806370a08231116100d1578063b88d4fde1161008a578063d1a88ae511610064578063d1a88ae514610596578063e0391b09146105c1578063e985e9c5146105ec578063ef2d17461461062957610181565b8063b88d4fde14610514578063c322579c1461053d578063c87b56dd1461055957610181565b806370a08231146103fa5780638e2645901461043757806395d89b41146104745780639b1225c41461049f578063a0639f6f146104bb578063a22cb465146104eb57610181565b806323b872dd1161013e5780634b58ffaa116101185780634b58ffaa1461033c578063629cb2e4146103675780636352211e1461039257806368f1945f146103cf57610181565b806323b872dd146102ad57806342842e0e146102d65780634782060d146102ff57610181565b80630181d0821461018657806301ffc9a7146101a257806306fdde03146101df578063081812fc1461020a578063095ea7b3146102475780631481b57314610270575b600080fd5b6101a0600480360381019061019b91906131c8565b610654565b005b3480156101ae57600080fd5b506101c960048036038101906101c49190613260565b6108dc565b6040516101d6919061329c565b60405180910390f35b3480156101eb57600080fd5b506101f46109be565b6040516102019190613347565b60405180910390f35b34801561021657600080fd5b50610231600480360381019061022c9190613369565b610a50565b60405161023e91906133d7565b60405180910390f35b34801561025357600080fd5b5061026e6004803603810190610269919061341e565b610a96565b005b34801561027c57600080fd5b506102976004803603810190610292919061345e565b610bad565b6040516102a4919061329c565b60405180910390f35b3480156102b957600080fd5b506102d460048036038101906102cf919061349e565b610c9c565b005b3480156102e257600080fd5b506102fd60048036038101906102f8919061349e565b610cfc565b005b34801561030b57600080fd5b5061032660048036038101906103219190613369565b610d1c565b60405161033391906135af565b60405180910390f35b34801561034857600080fd5b50610351610dbd565b60405161035e91906136f3565b60405180910390f35b34801561037357600080fd5b5061037c610f7f565b60405161038991906136f3565b60405180910390f35b34801561039e57600080fd5b506103b960048036038101906103b49190613369565b6111d1565b6040516103c691906133d7565b60405180910390f35b3480156103db57600080fd5b506103e4611257565b6040516103f19190613724565b60405180910390f35b34801561040657600080fd5b50610421600480360381019061041c919061373f565b611261565b60405161042e9190613724565b60405180910390f35b34801561044357600080fd5b5061045e60048036038101906104599190613369565b611318565b60405161046b91906137c1565b60405180910390f35b34801561048057600080fd5b5061048961138f565b6040516104969190613347565b60405180910390f35b6104b960048036038101906104b49190613369565b611421565b005b6104d560048036038101906104d09190613a17565b61190f565b6040516104e29190613724565b60405180910390f35b3480156104f757600080fd5b50610512600480360381019061050d9190613aca565b611a18565b005b34801561052057600080fd5b5061053b60048036038101906105369190613bab565b611a2e565b005b61055760048036038101906105529190613369565b611a90565b005b34801561056557600080fd5b50610580600480360381019061057b9190613369565b611b2a565b60405161058d9190613347565b60405180910390f35b3480156105a257600080fd5b506105ab611c3c565b6040516105b891906137c1565b60405180910390f35b3480156105cd57600080fd5b506105d6611cc0565b6040516105e391906136f3565b60405180910390f35b3480156105f857600080fd5b50610613600480360381019061060e9190613c2e565b611e01565b604051610620919061329c565b60405180910390f35b34801561063557600080fd5b5061063e611e95565b60405161064b9190613724565b60405180910390f35b600c600083815260200190815260200160002060003373ffffffffffffffffffffffffffffffffffffffff1673ffffffffffffffffffffffffffffffffffffffff16815260200190815260200160002060009054906101000a900460ff166106f1576040517f08c379a00000000000000000000000000000000000000000000000000000000081526004016106e890613cba565b60405180910390fd5b6001600d6000848152602001908152602001600020805490501461074a576040517f08c379a000000000000000000000000000000000000000000000000000000000815260040161074190613d4c565b60405180910390fd5b60001515600b600084815260200190815260200160002060020160019054906101000a900460ff161515146107b4576040517f08c379a00000000000000000000000000000000000000000000000000000000081526004016107ab90613db8565b60405180910390fd5b60011515600b600084815260200190815260200160002060020160009054906101000a900460ff1615151480156107ef575060011515811515145b1561082f576040517f08c379a000000000000000000000000000000000000000000000000000000000815260040161082690613e24565b60405180910390fd5b60001515600b600084815260200190815260200160002060020160009054906101000a900460ff16151514801561086a575060001515811515145b156108aa576040517f08c379a00000000000000000000000000000000000000000000000000000000081526004016108a190613e90565b60405180910390fd5b80600b600084815260200190815260200160002060020160006101000a81548160ff0219169083151502179055505050565b60007f80ac58cd000000000000000000000000000000000000000000000000000000007bffffffffffffffffffffffffffffffffffffffffffffffffffffffff1916827bffffffffffffffffffffffffffffffffffffffffffffffffffffffff191614806109a757507f5b5e139f000000000000000000000000000000000000000000000000000000007bffffffffffffffffffffffffffffffffffffffffffffffffffffffff1916827bffffffffffffffffffffffffffffffffffffffffffffffffffffffff1916145b806109b757506109b682611ea6565b5b9050919050565b6060600080546109cd90613edf565b80601f01602080910402602001604051908101604052809291908181526020018280546109f990613edf565b8015610a465780601f10610a1b57610100808354040283529160200191610a46565b820191906000526020600020905b815481529060010190602001808311610a2957829003601f168201915b5050505050905090565b6000610a5b82611f10565b6004600083815260200190815260200160002060009054906101000a900473ffffffffffffffffffffffffffffffffffffffff169050919050565b6000610aa1826111d1565b90508073ffffffffffffffffffffffffffffffffffffffff168373ffffffffffffffffffffffffffffffffffffffff1603610b11576040517f08c379a0000000000000000000000000000000000000000000000000000000008152600401610b0890613f82565b60405180910390fd5b8073ffffffffffffffffffffffffffffffffffffffff16610b30611f5b565b73ffffffffffffffffffffffffffffffffffffffff161480610b5f5750610b5e81610b59611f5b565b611e01565b5b610b9e576040517f08c379a0000000000000000000000000000000000000000000000000000000008152600401610b9590614014565b60405180910390fd5b610ba88383611f63565b505050565b60008073ffffffffffffffffffffffffffffffffffffffff16610bcf8461201c565b73ffffffffffffffffffffffffffffffffffffffff1603610c25576040517f08c379a0000000000000000000000000000000000000000000000000000000008152600401610c1c90614080565b60405180910390fd5b600c600084815260200190815260200160002060008373ffffffffffffffffffffffffffffffffffffffff1673ffffffffffffffffffffffffffffffffffffffff16815260200190815260200160002060009054906101000a900460ff1615610c915760019050610c96565b600090505b92915050565b610cad610ca7611f5b565b82612059565b610cec576040517f08c379a0000000000000000000000000000000000000000000000000000000008152600401610ce390614112565b60405180910390fd5b610cf78383836120ee565b505050565b610d1783838360405180602001604052806000815250611a2e565b505050565b6060600d6000838152602001908152602001600020805480602002602001604051908101604052809291908181526020018280548015610db157602002820191906000526020600020905b8160009054906101000a900473ffffffffffffffffffffffffffffffffffffffff1673ffffffffffffffffffffffffffffffffffffffff1681526020019060010190808311610d67575b50505050509050919050565b60606000610dcb60076123e7565b90506000805b82811015610e375760011515600b6000600184610dee9190614161565b815260200190815260200160002060020160009054906101000a900460ff16151503610e2457600182610e219190614161565b91505b8080610e2f90614195565b915050610dd1565b5060008167ffffffffffffffff811115610e5457610e536137e6565b5b604051908082528060200260200182016040528015610e8d57816020015b610e7a613073565b815260200190600190039081610e725790505b5090506000805b84811015610f74576000600b6000600184610eaf9190614161565b81526020019081526020016000209050600115158160020160009054906101000a900460ff16151503610f60578060405180608001604052908160008201548152602001600182015481526020016002820160009054906101000a900460ff161515151581526020016002820160019054906101000a900460ff161515151581525050848481518110610f4557610f446141dd565b5b6020026020010181905250600183610f5d9190614161565b92505b508080610f6c90614195565b915050610e94565b508194505050505090565b60606000610f8d60076123e7565b9050600080600080600090505b8481101561103457600c6000600183610fb39190614161565b815260200190815260200160002060003373ffffffffffffffffffffffffffffffffffffffff1673ffffffffffffffffffffffffffffffffffffffff16815260200190815260200160002060009054906101000a900460ff16156110215760018461101e9190614161565b93505b808061102c90614195565b915050610f9a565b5060008367ffffffffffffffff811115611051576110506137e6565b5b60405190808252806020026020018201604052801561108a57816020015b611077613073565b81526020019060019003908161106f5790505b50905060005b858110156111c557600c60006001836110a99190614161565b815260200190815260200160002060003373ffffffffffffffffffffffffffffffffffffffff1673ffffffffffffffffffffffffffffffffffffffff16815260200190815260200160002060009054906101000a900460ff16156111b2576001816111149190614161565b92506000600b600085815260200190815260200160002090508060405180608001604052908160008201548152602001600182015481526020016002820160009054906101000a900460ff161515151581526020016002820160019054906101000a900460ff161515151581525050838681518110611196576111956141dd565b5b60200260200101819052506001856111ae9190614161565b9450505b80806111bd90614195565b915050611090565b50809550505050505090565b6000806111dd8361201c565b9050600073ffffffffffffffffffffffffffffffffffffffff168173ffffffffffffffffffffffffffffffffffffffff160361124e576040517f08c379a000000000000000000000000000000000000000000000000000000000815260040161124590614258565b60405180910390fd5b80915050919050565b6000600a54905090565b60008073ffffffffffffffffffffffffffffffffffffffff168273ffffffffffffffffffffffffffffffffffffffff16036112d1576040517f08c379a00000000000000000000000000000000000000000000000000000000081526004016112c8906142ea565b60405180910390fd5b600360008373ffffffffffffffffffffffffffffffffffffffff1673ffffffffffffffffffffffffffffffffffffffff168152602001908152602001600020549050919050565b611320613073565b600b600083815260200190815260200160002060405180608001604052908160008201548152602001600182015481526020016002820160009054906101000a900460ff161515151581526020016002820160019054906101000a900460ff1615151515815250509050919050565b60606001805461139e90613edf565b80601f01602080910402602001604051908101604052809291908181526020018280546113ca90613edf565b80156114175780601f106113ec57610100808354040283529160200191611417565b820191906000526020600020905b8154815290600101906020018083116113fa57829003601f168201915b5050505050905090565b600b600082815260200190815260200160002060020160019054906101000a900460ff1615611485576040517f08c379a000000000000000000000000000000000000000000000000000000000815260040161147c9061437c565b60405180910390fd5b6000600b6000838152602001908152602001600020600101549050803410156114e3576040517f08c379a00000000000000000000000000000000000000000000000000000000081526004016114da9061440e565b60405180910390fd5b600b600083815260200190815260200160002060020160009054906101000a900460ff16611546576040517f08c379a000000000000000000000000000000000000000000000000000000000815260040161153d9061447a565b60405180910390fd5b6001600d6000848152602001908152602001600020805490501461159f576040517f08c379a000000000000000000000000000000000000000000000000000000000815260040161159690613d4c565b60405180910390fd5b600d60008381526020019081526020016000206000815481106115c5576115c46141dd565b5b9060005260206000200160009054906101000a900473ffffffffffffffffffffffffffffffffffffffff1673ffffffffffffffffffffffffffffffffffffffff163373ffffffffffffffffffffffffffffffffffffffff160361165d576040517f08c379a0000000000000000000000000000000000000000000000000000000008152600401611654906144e6565b60405180910390fd5b6000600d6000848152602001908152602001600020600081548110611685576116846141dd565b5b9060005260206000200160009054906101000a900473ffffffffffffffffffffffffffffffffffffffff1690506116bc60086123f5565b6116c78133856120ee565b6000600c60008581526020019081526020016000206000600d6000878152602001908152602001600020600081548110611704576117036141dd565b5b9060005260206000200160009054906101000a900473ffffffffffffffffffffffffffffffffffffffff1673ffffffffffffffffffffffffffffffffffffffff1673ffffffffffffffffffffffffffffffffffffffff16815260200190815260200160002060006101000a81548160ff0219169083151502179055506001600c600085815260200190815260200160002060003373ffffffffffffffffffffffffffffffffffffffff1673ffffffffffffffffffffffffffffffffffffffff16815260200190815260200160002060006101000a81548160ff02191690831515021790555033600d60008581526020019081526020016000206000815481106118105761180f6141dd565b5b9060005260206000200160006101000a81548173ffffffffffffffffffffffffffffffffffffffff021916908373ffffffffffffffffffffffffffffffffffffffff160217905550600960009054906101000a900473ffffffffffffffffffffffffffffffffffffffff1673ffffffffffffffffffffffffffffffffffffffff166108fc600a549081150290604051600060405180830381858888f193505050501580156118c2573d6000803e3d6000fd5b508073ffffffffffffffffffffffffffffffffffffffff166108fc839081150290604051600060405180830381858888f19350505050158015611909573d6000803e3d6000fd5b50505050565b6000821561195f57600015158215151461195e576040517f08c379a000000000000000000000000000000000000000000000000000000000815260040161195590614578565b60405180910390fd5b5b6001845111156119b15760001515821515146119b0576040517f08c379a00000000000000000000000000000000000000000000000000000000081526004016119a79061460a565b60405180910390fd5b5b6119bb60076123f5565b60006119c760076123e7565b90506000856000815181106119df576119de6141dd565b5b602002602001015190506119f3818361240b565b6119fd8289612429565b611a0a828887878a612496565b819250505095945050505050565b611a2a611a23611f5b565b83836126da565b5050565b611a3f611a39611f5b565b83612059565b611a7e576040517f08c379a0000000000000000000000000000000000000000000000000000000008152600401611a7590614112565b60405180910390fd5b611a8a84848484612846565b50505050565b3373ffffffffffffffffffffffffffffffffffffffff16600960009054906101000a900473ffffffffffffffffffffffffffffffffffffffff1673ffffffffffffffffffffffffffffffffffffffff1614611b20576040517f08c379a0000000000000000000000000000000000000000000000000000000008152600401611b179061469c565b60405180910390fd5b80600a8190555050565b6060611b3582611f10565b6000600660008481526020019081526020016000208054611b5590613edf565b80601f0160208091040260200160405190810160405280929190818152602001828054611b8190613edf565b8015611bce5780601f10611ba357610100808354040283529160200191611bce565b820191906000526020600020905b815481529060010190602001808311611bb157829003601f168201915b505050505090506000611bdf6128a2565b90506000815103611bf4578192505050611c37565b600082511115611c29578082604051602001611c119291906146f8565b60405160208183030381529060405292505050611c37565b611c32846128b9565b925050505b919050565b611c44613073565b6000611c5060076123e7565b9050600b600082815260200190815260200160002060405180608001604052908160008201548152602001600182015481526020016002820160009054906101000a900460ff161515151581526020016002820160019054906101000a900460ff16151515158152505091505090565b60606000611cce60076123e7565b905060008167ffffffffffffffff811115611cec57611ceb6137e6565b5b604051908082528060200260200182016040528015611d2557816020015b611d12613073565b815260200190600190039081611d0a5790505b50905060008080600090505b84811015611df657600181611d469190614161565b91506000600b600084815260200190815260200160002090508060405180608001604052908160008201548152602001600182015481526020016002820160009054906101000a900460ff161515151581526020016002820160019054906101000a900460ff161515151581525050858581518110611dc857611dc76141dd565b5b6020026020010181905250600184611de09190614161565b9350508080611dee90614195565b915050611d31565b508294505050505090565b6000600560008473ffffffffffffffffffffffffffffffffffffffff1673ffffffffffffffffffffffffffffffffffffffff16815260200190815260200160002060008373ffffffffffffffffffffffffffffffffffffffff1673ffffffffffffffffffffffffffffffffffffffff16815260200190815260200160002060009054906101000a900460ff16905092915050565b6000611ea160076123e7565b905090565b60007f01ffc9a7000000000000000000000000000000000000000000000000000000007bffffffffffffffffffffffffffffffffffffffffffffffffffffffff1916827bffffffffffffffffffffffffffffffffffffffffffffffffffffffff1916149050919050565b611f1981612921565b611f58576040517f08c379a0000000000000000000000000000000000000000000000000000000008152600401611f4f90614258565b60405180910390fd5b50565b600033905090565b816004600083815260200190815260200160002060006101000a81548173ffffffffffffffffffffffffffffffffffffffff021916908373ffffffffffffffffffffffffffffffffffffffff160217905550808273ffffffffffffffffffffffffffffffffffffffff16611fd6836111d1565b73ffffffffffffffffffffffffffffffffffffffff167f8c5be1e5ebec7d5bd14f71427d1e84f3dd0314c0f7b2291e5b200ac8c7c3b92560405160405180910390a45050565b60006002600083815260200190815260200160002060009054906101000a900473ffffffffffffffffffffffffffffffffffffffff169050919050565b600080612065836111d1565b90508073ffffffffffffffffffffffffffffffffffffffff168473ffffffffffffffffffffffffffffffffffffffff1614806120a757506120a68185611e01565b5b806120e557508373ffffffffffffffffffffffffffffffffffffffff166120cd84610a50565b73ffffffffffffffffffffffffffffffffffffffff16145b91505092915050565b8273ffffffffffffffffffffffffffffffffffffffff1661210e826111d1565b73ffffffffffffffffffffffffffffffffffffffff1614612164576040517f08c379a000000000000000000000000000000000000000000000000000000000815260040161215b9061478e565b60405180910390fd5b600073ffffffffffffffffffffffffffffffffffffffff168273ffffffffffffffffffffffffffffffffffffffff16036121d3576040517f08c379a00000000000000000000000000000000000000000000000000000000081526004016121ca90614820565b60405180910390fd5b6121e08383836001612962565b8273ffffffffffffffffffffffffffffffffffffffff16612200826111d1565b73ffffffffffffffffffffffffffffffffffffffff1614612256576040517f08c379a000000000000000000000000000000000000000000000000000000000815260040161224d9061478e565b60405180910390fd5b6004600082815260200190815260200160002060006101000a81549073ffffffffffffffffffffffffffffffffffffffff02191690556001600360008573ffffffffffffffffffffffffffffffffffffffff1673ffffffffffffffffffffffffffffffffffffffff168152602001908152602001600020600082825403925050819055506001600360008473ffffffffffffffffffffffffffffffffffffffff1673ffffffffffffffffffffffffffffffffffffffff16815260200190815260200160002060008282540192505081905550816002600083815260200190815260200160002060006101000a81548173ffffffffffffffffffffffffffffffffffffffff021916908373ffffffffffffffffffffffffffffffffffffffff160217905550808273ffffffffffffffffffffffffffffffffffffffff168473ffffffffffffffffffffffffffffffffffffffff167fddf252ad1be2c89b69c2b068fc378daa952ba7f163c4a11628f55a4df523b3ef60405160405180910390a46123e28383836001612968565b505050565b600081600001549050919050565b6001816000016000828254019250508190555050565b61242582826040518060200160405280600081525061296e565b5050565b61243282612921565b612471576040517f08c379a0000000000000000000000000000000000000000000000000000000008152600401612468906148b2565b60405180910390fd5b806006600084815260200190815260200160002090816124919190614a7e565b505050565b61249f346129c9565b6124a8846129c9565b6124b3600a546129c9565b600a543410156124f8576040517f08c379a00000000000000000000000000000000000000000000000000000000081526004016124ef90614bc2565b60405180910390fd5b6000841161253b576040517f08c379a000000000000000000000000000000000000000000000000000000000815260040161253290614c54565b60405180910390fd5b60405180608001604052808681526020018581526020018315158152602001841515815250600b6000878152602001908152602001600020600082015181600001556020820151816001015560408201518160020160006101000a81548160ff02191690831515021790555060608201518160020160016101000a81548160ff02191690831515021790555090505060005b815181101561266c576001600c60008881526020019081526020016000206000848481518110612600576125ff6141dd565b5b602002602001015173ffffffffffffffffffffffffffffffffffffffff1673ffffffffffffffffffffffffffffffffffffffff16815260200190815260200160002060006101000a81548160ff021916908315150217905550808061266490614195565b9150506125cd565b5080600d6000878152602001908152602001600020908051906020019061269492919061309f565b50847f41541b152c58ca24a9ab7bb343e60d72c377d304284348781b874cd3ec7a7465828685876040516126cb9493929190614d32565b60405180910390a25050505050565b8173ffffffffffffffffffffffffffffffffffffffff168373ffffffffffffffffffffffffffffffffffffffff1603612748576040517f08c379a000000000000000000000000000000000000000000000000000000000815260040161273f90614dca565b60405180910390fd5b80600560008573ffffffffffffffffffffffffffffffffffffffff1673ffffffffffffffffffffffffffffffffffffffff16815260200190815260200160002060008473ffffffffffffffffffffffffffffffffffffffff1673ffffffffffffffffffffffffffffffffffffffff16815260200190815260200160002060006101000a81548160ff0219169083151502179055508173ffffffffffffffffffffffffffffffffffffffff168373ffffffffffffffffffffffffffffffffffffffff167f17307eab39ab6107e8899845ad3d59bd9653f200f220920489ca2b5937696c3183604051612839919061329c565b60405180910390a3505050565b6128518484846120ee565b61285d84848484612a62565b61289c576040517f08c379a000000000000000000000000000000000000000000000000000000000815260040161289390614e5c565b60405180910390fd5b50505050565b606060405180602001604052806000815250905090565b60606128c482611f10565b60006128ce6128a2565b905060008151116128ee5760405180602001604052806000815250612919565b806128f884612be9565b6040516020016129099291906146f8565b6040516020818303038152906040525b915050919050565b60008073ffffffffffffffffffffffffffffffffffffffff166129438361201c565b73ffffffffffffffffffffffffffffffffffffffff1614159050919050565b50505050565b50505050565b6129788383612cb7565b6129856000848484612a62565b6129c4576040517f08c379a00000000000000000000000000000000000000000000000000000000081526004016129bb90614e5c565b60405180910390fd5b505050565b612a5f816040516024016129dd9190613724565b6040516020818303038152906040527ff82c50f1000000000000000000000000000000000000000000000000000000007bffffffffffffffffffffffffffffffffffffffffffffffffffffffff19166020820180517bffffffffffffffffffffffffffffffffffffffffffffffffffffffff8381831617835250505050612ed4565b50565b6000612a838473ffffffffffffffffffffffffffffffffffffffff16612efd565b15612bdc578373ffffffffffffffffffffffffffffffffffffffff1663150b7a02612aac611f5b565b8786866040518563ffffffff1660e01b8152600401612ace9493929190614ed1565b6020604051808303816000875af1925050508015612b0a57506040513d601f19601f82011682018060405250810190612b079190614f32565b60015b612b8c573d8060008114612b3a576040519150601f19603f3d011682016040523d82523d6000602084013e612b3f565b606091505b506000815103612b84576040517f08c379a0000000000000000000000000000000000000000000000000000000008152600401612b7b90614e5c565b60405180910390fd5b805181602001fd5b63150b7a0260e01b7bffffffffffffffffffffffffffffffffffffffffffffffffffffffff1916817bffffffffffffffffffffffffffffffffffffffffffffffffffffffff191614915050612be1565b600190505b949350505050565b606060006001612bf884612f20565b01905060008167ffffffffffffffff811115612c1757612c166137e6565b5b6040519080825280601f01601f191660200182016040528015612c495781602001600182028036833780820191505090505b509050600082602001820190505b600115612cac578080600190039150507f3031323334353637383961626364656600000000000000000000000000000000600a86061a8153600a8581612ca057612c9f614f5f565b5b04945060008503612c57575b819350505050919050565b600073ffffffffffffffffffffffffffffffffffffffff168273ffffffffffffffffffffffffffffffffffffffff1603612d26576040517f08c379a0000000000000000000000000000000000000000000000000000000008152600401612d1d90614fda565b60405180910390fd5b612d2f81612921565b15612d6f576040517f08c379a0000000000000000000000000000000000000000000000000000000008152600401612d6690615046565b60405180910390fd5b612d7d600083836001612962565b612d8681612921565b15612dc6576040517f08c379a0000000000000000000000000000000000000000000000000000000008152600401612dbd90615046565b60405180910390fd5b6001600360008473ffffffffffffffffffffffffffffffffffffffff1673ffffffffffffffffffffffffffffffffffffffff16815260200190815260200160002060008282540192505081905550816002600083815260200190815260200160002060006101000a81548173ffffffffffffffffffffffffffffffffffffffff021916908373ffffffffffffffffffffffffffffffffffffffff160217905550808273ffffffffffffffffffffffffffffffffffffffff16600073ffffffffffffffffffffffffffffffffffffffff167fddf252ad1be2c89b69c2b068fc378daa952ba7f163c4a11628f55a4df523b3ef60405160405180910390a4612ed0600083836001612968565b5050565b60008151905060006a636f6e736f6c652e6c6f679050602083016000808483855afa5050505050565b6000808273ffffffffffffffffffffffffffffffffffffffff163b119050919050565b600080600090507a184f03e93ff9f4daa797ed6e38ed64bf6a1f0100000000000000008310612f7e577a184f03e93ff9f4daa797ed6e38ed64bf6a1f0100000000000000008381612f7457612f73614f5f565b5b0492506040810190505b6d04ee2d6d415b85acef81000000008310612fbb576d04ee2d6d415b85acef81000000008381612fb157612fb0614f5f565b5b0492506020810190505b662386f26fc100008310612fea57662386f26fc100008381612fe057612fdf614f5f565b5b0492506010810190505b6305f5e1008310613013576305f5e100838161300957613008614f5f565b5b0492506008810190505b612710831061303857612710838161302e5761302d614f5f565b5b0492506004810190505b6064831061305b576064838161305157613050614f5f565b5b0492506002810190505b600a831061306a576001810190505b80915050919050565b604051806080016040528060008152602001600081526020016000151581526020016000151581525090565b828054828255906000526020600020908101928215613118579160200282015b828111156131175782518260006101000a81548173ffffffffffffffffffffffffffffffffffffffff021916908373ffffffffffffffffffffffffffffffffffffffff160217905550916020019190600101906130bf565b5b5090506131259190613129565b5090565b5b8082111561314257600081600090555060010161312a565b5090565b6000604051905090565b600080fd5b600080fd5b6000819050919050565b61316d8161315a565b811461317857600080fd5b50565b60008135905061318a81613164565b92915050565b60008115159050919050565b6131a581613190565b81146131b057600080fd5b50565b6000813590506131c28161319c565b92915050565b600080604083850312156131df576131de613150565b5b60006131ed8582860161317b565b92505060206131fe858286016131b3565b9150509250929050565b60007fffffffff0000000000000000000000000000000000000000000000000000000082169050919050565b61323d81613208565b811461324857600080fd5b50565b60008135905061325a81613234565b92915050565b60006020828403121561327657613275613150565b5b60006132848482850161324b565b91505092915050565b61329681613190565b82525050565b60006020820190506132b1600083018461328d565b92915050565b600081519050919050565b600082825260208201905092915050565b60005b838110156132f15780820151818401526020810190506132d6565b60008484015250505050565b6000601f19601f8301169050919050565b6000613319826132b7565b61332381856132c2565b93506133338185602086016132d3565b61333c816132fd565b840191505092915050565b60006020820190508181036000830152613361818461330e565b905092915050565b60006020828403121561337f5761337e613150565b5b600061338d8482850161317b565b91505092915050565b600073ffffffffffffffffffffffffffffffffffffffff82169050919050565b60006133c182613396565b9050919050565b6133d1816133b6565b82525050565b60006020820190506133ec60008301846133c8565b92915050565b6133fb816133b6565b811461340657600080fd5b50565b600081359050613418816133f2565b92915050565b6000806040838503121561343557613434613150565b5b600061344385828601613409565b92505060206134548582860161317b565b9150509250929050565b6000806040838503121561347557613474613150565b5b60006134838582860161317b565b925050602061349485828601613409565b9150509250929050565b6000806000606084860312156134b7576134b6613150565b5b60006134c586828701613409565b93505060206134d686828701613409565b92505060406134e78682870161317b565b9150509250925092565b600081519050919050565b600082825260208201905092915050565b6000819050602082019050919050565b613526816133b6565b82525050565b6000613538838361351d565b60208301905092915050565b6000602082019050919050565b600061355c826134f1565b61356681856134fc565b93506135718361350d565b8060005b838110156135a2578151613589888261352c565b975061359483613544565b925050600181019050613575565b5085935050505092915050565b600060208201905081810360008301526135c98184613551565b905092915050565b600081519050919050565b600082825260208201905092915050565b6000819050602082019050919050565b6136068161315a565b82525050565b61361581613190565b82525050565b60808201600082015161363160008501826135fd565b50602082015161364460208501826135fd565b506040820151613657604085018261360c565b50606082015161366a606085018261360c565b50505050565b600061367c838361361b565b60808301905092915050565b6000602082019050919050565b60006136a0826135d1565b6136aa81856135dc565b93506136b5836135ed565b8060005b838110156136e65781516136cd8882613670565b97506136d883613688565b9250506001810190506136b9565b5085935050505092915050565b6000602082019050818103600083015261370d8184613695565b905092915050565b61371e8161315a565b82525050565b60006020820190506137396000830184613715565b92915050565b60006020828403121561375557613754613150565b5b600061376384828501613409565b91505092915050565b60808201600082015161378260008501826135fd565b50602082015161379560208501826135fd565b5060408201516137a8604085018261360c565b5060608201516137bb606085018261360c565b50505050565b60006080820190506137d6600083018461376c565b92915050565b600080fd5b600080fd5b7f4e487b7100000000000000000000000000000000000000000000000000000000600052604160045260246000fd5b61381e826132fd565b810181811067ffffffffffffffff8211171561383d5761383c6137e6565b5b80604052505050565b6000613850613146565b905061385c8282613815565b919050565b600067ffffffffffffffff82111561387c5761387b6137e6565b5b613885826132fd565b9050602081019050919050565b82818337600083830152505050565b60006138b46138af84613861565b613846565b9050828152602081018484840111156138d0576138cf6137e1565b5b6138db848285613892565b509392505050565b600082601f8301126138f8576138f76137dc565b5b81356139088482602086016138a1565b91505092915050565b600067ffffffffffffffff82111561392c5761392b6137e6565b5b602082029050602081019050919050565b600080fd5b600061394d82613396565b9050919050565b61395d81613942565b811461396857600080fd5b50565b60008135905061397a81613954565b92915050565b600061399361398e84613911565b613846565b905080838252602082019050602084028301858111156139b6576139b561393d565b5b835b818110156139df57806139cb888261396b565b8452602084019350506020810190506139b8565b5050509392505050565b600082601f8301126139fe576139fd6137dc565b5b8135613a0e848260208601613980565b91505092915050565b600080600080600060a08688031215613a3357613a32613150565b5b600086013567ffffffffffffffff811115613a5157613a50613155565b5b613a5d888289016138e3565b9550506020613a6e8882890161317b565b945050604086013567ffffffffffffffff811115613a8f57613a8e613155565b5b613a9b888289016139e9565b9350506060613aac888289016131b3565b9250506080613abd888289016131b3565b9150509295509295909350565b60008060408385031215613ae157613ae0613150565b5b6000613aef85828601613409565b9250506020613b00858286016131b3565b9150509250929050565b600067ffffffffffffffff821115613b2557613b246137e6565b5b613b2e826132fd565b9050602081019050919050565b6000613b4e613b4984613b0a565b613846565b905082815260208101848484011115613b6a57613b696137e1565b5b613b75848285613892565b509392505050565b600082601f830112613b9257613b916137dc565b5b8135613ba2848260208601613b3b565b91505092915050565b60008060008060808587031215613bc557613bc4613150565b5b6000613bd387828801613409565b9450506020613be487828801613409565b9350506040613bf58782880161317b565b925050606085013567ffffffffffffffff811115613c1657613c15613155565b5b613c2287828801613b7d565b91505092959194509250565b60008060408385031215613c4557613c44613150565b5b6000613c5385828601613409565b9250506020613c6485828601613409565b9150509250929050565b7f596f7520617265206e6f7420746865206f776e65722100000000000000000000600082015250565b6000613ca46016836132c2565b9150613caf82613c6e565b602082019050919050565b60006020820190508181036000830152613cd381613c97565b9050919050565b7f546865726520617265206d756c7469706c65206f776e6572732c20546869732060008201527f63616e277420626520646f6e6521000000000000000000000000000000000000602082015250565b6000613d36602e836132c2565b9150613d4182613cda565b604082019050919050565b60006020820190508181036000830152613d6581613d29565b9050919050565b7f536f756c426f756e64204e46542063616e2774206265206c6973746564210000600082015250565b6000613da2601e836132c2565b9150613dad82613d6c565b602082019050919050565b60006020820190508181036000830152613dd181613d95565b9050919050565b7f4e465420697320616c7265616479206c69737465642100000000000000000000600082015250565b6000613e0e6016836132c2565b9150613e1982613dd8565b602082019050919050565b60006020820190508181036000830152613e3d81613e01565b9050919050565b7f4e465420697320616c726561647920756e6c6973746564210000000000000000600082015250565b6000613e7a6018836132c2565b9150613e8582613e44565b602082019050919050565b60006020820190508181036000830152613ea981613e6d565b9050919050565b7f4e487b7100000000000000000000000000000000000000000000000000000000600052602260045260246000fd5b60006002820490506001821680613ef757607f821691505b602082108103613f0a57613f09613eb0565b5b50919050565b7f4552433732313a20617070726f76616c20746f2063757272656e74206f776e6560008201527f7200000000000000000000000000000000000000000000000000000000000000602082015250565b6000613f6c6021836132c2565b9150613f7782613f10565b604082019050919050565b60006020820190508181036000830152613f9b81613f5f565b9050919050565b7f4552433732313a20617070726f76652063616c6c6572206973206e6f7420746f60008201527f6b656e206f776e6572206f7220617070726f76656420666f7220616c6c000000602082015250565b6000613ffe603d836132c2565b915061400982613fa2565b604082019050919050565b6000602082019050818103600083015261402d81613ff1565b9050919050565b7f496e76616c696420746f6b656e20494400000000000000000000000000000000600082015250565b600061406a6010836132c2565b915061407582614034565b602082019050919050565b600060208201905081810360008301526140998161405d565b9050919050565b7f4552433732313a2063616c6c6572206973206e6f7420746f6b656e206f776e6560008201527f72206f7220617070726f76656400000000000000000000000000000000000000602082015250565b60006140fc602d836132c2565b9150614107826140a0565b604082019050919050565b6000602082019050818103600083015261412b816140ef565b9050919050565b7f4e487b7100000000000000000000000000000000000000000000000000000000600052601160045260246000fd5b600061416c8261315a565b91506141778361315a565b925082820190508082111561418f5761418e614132565b5b92915050565b60006141a08261315a565b91507fffffffffffffffffffffffffffffffffffffffffffffffffffffffffffffffff82036141d2576141d1614132565b5b600182019050919050565b7f4e487b7100000000000000000000000000000000000000000000000000000000600052603260045260246000fd5b7f4552433732313a20696e76616c696420746f6b656e2049440000000000000000600082015250565b60006142426018836132c2565b915061424d8261420c565b602082019050919050565b6000602082019050818103600083015261427181614235565b9050919050565b7f4552433732313a2061646472657373207a65726f206973206e6f74206120766160008201527f6c6964206f776e65720000000000000000000000000000000000000000000000602082015250565b60006142d46029836132c2565b91506142df82614278565b604082019050919050565b60006020820190508181036000830152614303816142c7565b9050919050565b7f54686973204e465420697320736f756c626f756e642c205468752063616e277460008201527f2062652053656c6c210000000000000000000000000000000000000000000000602082015250565b60006143666029836132c2565b91506143718261430a565b604082019050919050565b6000602082019050818103600083015261439581614359565b9050919050565b7f506c65617365207375626d6974207468652061736b696e67207072696365206960008201527f6e206f7264657220746f20636f6d706c65746520746865207075726368617365602082015250565b60006143f86040836132c2565b91506144038261439c565b604082019050919050565b60006020820190508181036000830152614427816143eb565b9050919050565b7f54686973204e4654206973206e6f74204c697374656420466f722053656c6c21600082015250565b60006144646020836132c2565b915061446f8261442e565b602082019050919050565b6000602082019050818103600083015261449381614457565b9050919050565b7f596f752061726520746865206f776e6572210000000000000000000000000000600082015250565b60006144d06012836132c2565b91506144db8261449a565b602082019050919050565b600060208201905081810360008301526144ff816144c3565b9050919050565b7f49742063616e2774206265206c6973746564206265636175736520697420697360008201527f20736f756c626f756e6421000000000000000000000000000000000000000000602082015250565b6000614562602b836132c2565b915061456d82614506565b604082019050919050565b6000602082019050818103600083015261459181614555565b9050919050565b7f49742063616e2774206265206c6973746564206265636175736520746865726560008201527f20617265206d756c7469706c65206f776e657273210000000000000000000000602082015250565b60006145f46035836132c2565b91506145ff82614598565b604082019050919050565b60006020820190508181036000830152614623816145e7565b9050919050565b7f4f6e6c79206f776e65722063616e20757064617465206c697374696e6720707260008201527f6963650000000000000000000000000000000000000000000000000000000000602082015250565b60006146866023836132c2565b91506146918261462a565b604082019050919050565b600060208201905081810360008301526146b581614679565b9050919050565b600081905092915050565b60006146d2826132b7565b6146dc81856146bc565b93506146ec8185602086016132d3565b80840191505092915050565b600061470482856146c7565b915061471082846146c7565b91508190509392505050565b7f4552433732313a207472616e736665722066726f6d20696e636f72726563742060008201527f6f776e6572000000000000000000000000000000000000000000000000000000602082015250565b60006147786025836132c2565b91506147838261471c565b604082019050919050565b600060208201905081810360008301526147a78161476b565b9050919050565b7f4552433732313a207472616e7366657220746f20746865207a65726f2061646460008201527f7265737300000000000000000000000000000000000000000000000000000000602082015250565b600061480a6024836132c2565b9150614815826147ae565b604082019050919050565b60006020820190508181036000830152614839816147fd565b9050919050565b7f45524337323155524953746f726167653a2055524920736574206f66206e6f6e60008201527f6578697374656e7420746f6b656e000000000000000000000000000000000000602082015250565b600061489c602e836132c2565b91506148a782614840565b604082019050919050565b600060208201905081810360008301526148cb8161488f565b9050919050565b60008190508160005260206000209050919050565b60006020601f8301049050919050565b600082821b905092915050565b6000600883026149347fffffffffffffffffffffffffffffffffffffffffffffffffffffffffffffffff826148f7565b61493e86836148f7565b95508019841693508086168417925050509392505050565b6000819050919050565b600061497b6149766149718461315a565b614956565b61315a565b9050919050565b6000819050919050565b61499583614960565b6149a96149a182614982565b848454614904565b825550505050565b600090565b6149be6149b1565b6149c981848461498c565b505050565b5b818110156149ed576149e26000826149b6565b6001810190506149cf565b5050565b601f821115614a3257614a03816148d2565b614a0c846148e7565b81016020851015614a1b578190505b614a2f614a27856148e7565b8301826149ce565b50505b505050565b600082821c905092915050565b6000614a5560001984600802614a37565b1980831691505092915050565b6000614a6e8383614a44565b9150826002028217905092915050565b614a87826132b7565b67ffffffffffffffff811115614aa057614a9f6137e6565b5b614aaa8254613edf565b614ab58282856149f1565b600060209050601f831160018114614ae85760008415614ad6578287015190505b614ae08582614a62565b865550614b48565b601f198416614af6866148d2565b60005b82811015614b1e57848901518255600182019150602085019450602081019050614af9565b86831015614b3b5784890151614b37601f891682614a44565b8355505b6001600288020188555050505b505050505050565b7f486f706566756c6c792073656e64696e672074686520636f727265637420707260008201527f6963650000000000000000000000000000000000000000000000000000000000602082015250565b6000614bac6023836132c2565b9150614bb782614b50565b604082019050919050565b60006020820190508181036000830152614bdb81614b9f565b9050919050565b7f4d616b652073757265207468652070726963652069736e2774206e656761746960008201527f7665000000000000000000000000000000000000000000000000000000000000602082015250565b6000614c3e6022836132c2565b9150614c4982614be2565b604082019050919050565b60006020820190508181036000830152614c6d81614c31565b9050919050565b600081519050919050565b600082825260208201905092915050565b6000819050602082019050919050565b614ca981613942565b82525050565b6000614cbb8383614ca0565b60208301905092915050565b6000602082019050919050565b6000614cdf82614c74565b614ce98185614c7f565b9350614cf483614c90565b8060005b83811015614d25578151614d0c8882614caf565b9750614d1783614cc7565b925050600181019050614cf8565b5085935050505092915050565b60006080820190508181036000830152614d4c8187614cd4565b9050614d5b6020830186613715565b614d68604083018561328d565b614d75606083018461328d565b95945050505050565b7f4552433732313a20617070726f766520746f2063616c6c657200000000000000600082015250565b6000614db46019836132c2565b9150614dbf82614d7e565b602082019050919050565b60006020820190508181036000830152614de381614da7565b9050919050565b7f4552433732313a207472616e7366657220746f206e6f6e20455243373231526560008201527f63656976657220696d706c656d656e7465720000000000000000000000000000602082015250565b6000614e466032836132c2565b9150614e5182614dea565b604082019050919050565b60006020820190508181036000830152614e7581614e39565b9050919050565b600081519050919050565b600082825260208201905092915050565b6000614ea382614e7c565b614ead8185614e87565b9350614ebd8185602086016132d3565b614ec6816132fd565b840191505092915050565b6000608082019050614ee660008301876133c8565b614ef360208301866133c8565b614f006040830185613715565b8181036060830152614f128184614e98565b905095945050505050565b600081519050614f2c81613234565b92915050565b600060208284031215614f4857614f47613150565b5b6000614f5684828501614f1d565b91505092915050565b7f4e487b7100000000000000000000000000000000000000000000000000000000600052601260045260246000fd5b7f4552433732313a206d696e7420746f20746865207a65726f2061646472657373600082015250565b6000614fc46020836132c2565b9150614fcf82614f8e565b602082019050919050565b60006020820190508181036000830152614ff381614fb7565b9050919050565b7f4552433732313a20746f6b656e20616c7265616479206d696e74656400000000600082015250565b6000615030601c836132c2565b915061503b82614ffa565b602082019050919050565b6000602082019050818103600083015261505f81615023565b905091905056fea2646970667358221220e868432235a1c4f7eda0387c77b3744108dc80eb29ace21f574c0dd833a6698664736f6c63430008120033",
  "linkReferences": {},
  "deployedLinkReferences": {}
}