{
    "_format": "hh-sol-artifact-1",
    "contractName": "PirateToken",
    "sourceName": "contracts/Pirate.sol",
    "abi": [
        {
            "inputs": [],
            "stateMutability": "nonpayable",
            "type": "constructor"
        },
        {
            "anonymous": false,
            "inputs": [
                {
                    "indexed": true,
                    "internalType": "address",
                    "name": "owner",
                    "type": "address"
                },
                {
                    "indexed": true,
                    "internalType": "address",
                    "name": "spender",
                    "type": "address"
                },
                {
                    "indexed": false,
                    "internalType": "uint256",
                    "name": "value",
                    "type": "uint256"
                }
            ],
            "name": "Approval",
            "type": "event"
        },
        {
            "anonymous": false,
            "inputs": [
                {
                    "indexed": true,
                    "internalType": "bytes32",
                    "name": "role",
                    "type": "bytes32"
                },
                {
                    "indexed": true,
                    "internalType": "bytes32",
                    "name": "previousAdminRole",
                    "type": "bytes32"
                },
                {
                    "indexed": true,
                    "internalType": "bytes32",
                    "name": "newAdminRole",
                    "type": "bytes32"
                }
            ],
            "name": "RoleAdminChanged",
            "type": "event"
        },
        {
            "anonymous": false,
            "inputs": [
                {
                    "indexed": true,
                    "internalType": "bytes32",
                    "name": "role",
                    "type": "bytes32"
                },
                {
                    "indexed": true,
                    "internalType": "address",
                    "name": "account",
                    "type": "address"
                },
                {
                    "indexed": true,
                    "internalType": "address",
                    "name": "sender",
                    "type": "address"
                }
            ],
            "name": "RoleGranted",
            "type": "event"
        },
        {
            "anonymous": false,
            "inputs": [
                {
                    "indexed": true,
                    "internalType": "bytes32",
                    "name": "role",
                    "type": "bytes32"
                },
                {
                    "indexed": true,
                    "internalType": "address",
                    "name": "account",
                    "type": "address"
                },
                {
                    "indexed": true,
                    "internalType": "address",
                    "name": "sender",
                    "type": "address"
                }
            ],
            "name": "RoleRevoked",
            "type": "event"
        },
        {
            "anonymous": false,
            "inputs": [
                {
                    "indexed": true,
                    "internalType": "address",
                    "name": "from",
                    "type": "address"
                },
                {
                    "indexed": true,
                    "internalType": "address",
                    "name": "to",
                    "type": "address"
                },
                {
                    "indexed": false,
                    "internalType": "uint256",
                    "name": "value",
                    "type": "uint256"
                }
            ],
            "name": "Transfer",
            "type": "event"
        },
        {
            "inputs": [],
            "name": "DEFAULT_ADMIN_ROLE",
            "outputs": [
                {
                    "internalType": "bytes32",
                    "name": "",
                    "type": "bytes32"
                }
            ],
            "stateMutability": "view",
            "type": "function"
        },
        {
            "inputs": [],
            "name": "MINTER_ROLE",
            "outputs": [
                {
                    "internalType": "bytes32",
                    "name": "",
                    "type": "bytes32"
                }
            ],
            "stateMutability": "view",
            "type": "function"
        },
        {
            "inputs": [
                {
                    "internalType": "address",
                    "name": "to",
                    "type": "address"
                }
            ],
            "name": "addAdmin",
            "outputs": [],
            "stateMutability": "nonpayable",
            "type": "function"
        },
        {
            "inputs": [
                {
                    "internalType": "address",
                    "name": "owner",
                    "type": "address"
                },
                {
                    "internalType": "address",
                    "name": "spender",
                    "type": "address"
                }
            ],
            "name": "allowance",
            "outputs": [
                {
                    "internalType": "uint256",
                    "name": "",
                    "type": "uint256"
                }
            ],
            "stateMutability": "view",
            "type": "function"
        },
        {
            "inputs": [
                {
                    "internalType": "address",
                    "name": "spender",
                    "type": "address"
                },
                {
                    "internalType": "uint256",
                    "name": "amount",
                    "type": "uint256"
                }
            ],
            "name": "approve",
            "outputs": [
                {
                    "internalType": "bool",
                    "name": "",
                    "type": "bool"
                }
            ],
            "stateMutability": "nonpayable",
            "type": "function"
        },
        {
            "inputs": [
                {
                    "internalType": "address",
                    "name": "account",
                    "type": "address"
                }
            ],
            "name": "balanceOf",
            "outputs": [
                {
                    "internalType": "uint256",
                    "name": "",
                    "type": "uint256"
                }
            ],
            "stateMutability": "view",
            "type": "function"
        },
        {
            "inputs": [],
            "name": "decimals",
            "outputs": [
                {
                    "internalType": "uint8",
                    "name": "",
                    "type": "uint8"
                }
            ],
            "stateMutability": "view",
            "type": "function"
        },
        {
            "inputs": [
                {
                    "internalType": "address",
                    "name": "spender",
                    "type": "address"
                },
                {
                    "internalType": "uint256",
                    "name": "subtractedValue",
                    "type": "uint256"
                }
            ],
            "name": "decreaseAllowance",
            "outputs": [
                {
                    "internalType": "bool",
                    "name": "",
                    "type": "bool"
                }
            ],
            "stateMutability": "nonpayable",
            "type": "function"
        },
        {
            "inputs": [
                {
                    "internalType": "bytes32",
                    "name": "role",
                    "type": "bytes32"
                }
            ],
            "name": "getRoleAdmin",
            "outputs": [
                {
                    "internalType": "bytes32",
                    "name": "",
                    "type": "bytes32"
                }
            ],
            "stateMutability": "view",
            "type": "function"
        },
        {
            "inputs": [
                {
                    "internalType": "bytes32",
                    "name": "role",
                    "type": "bytes32"
                },
                {
                    "internalType": "address",
                    "name": "account",
                    "type": "address"
                }
            ],
            "name": "grantRole",
            "outputs": [],
            "stateMutability": "nonpayable",
            "type": "function"
        },
        {
            "inputs": [
                {
                    "internalType": "bytes32",
                    "name": "role",
                    "type": "bytes32"
                },
                {
                    "internalType": "address",
                    "name": "account",
                    "type": "address"
                }
            ],
            "name": "hasRole",
            "outputs": [
                {
                    "internalType": "bool",
                    "name": "",
                    "type": "bool"
                }
            ],
            "stateMutability": "view",
            "type": "function"
        },
        {
            "inputs": [
                {
                    "internalType": "address",
                    "name": "spender",
                    "type": "address"
                },
                {
                    "internalType": "uint256",
                    "name": "addedValue",
                    "type": "uint256"
                }
            ],
            "name": "increaseAllowance",
            "outputs": [
                {
                    "internalType": "bool",
                    "name": "",
                    "type": "bool"
                }
            ],
            "stateMutability": "nonpayable",
            "type": "function"
        },
        {
            "inputs": [
                {
                    "internalType": "address",
                    "name": "to",
                    "type": "address"
                },
                {
                    "internalType": "uint256",
                    "name": "amount",
                    "type": "uint256"
                }
            ],
            "name": "mint",
            "outputs": [],
            "stateMutability": "nonpayable",
            "type": "function"
        },
        {
            "inputs": [],
            "name": "name",
            "outputs": [
                {
                    "internalType": "string",
                    "name": "",
                    "type": "string"
                }
            ],
            "stateMutability": "view",
            "type": "function"
        },
        {
            "inputs": [
                {
                    "internalType": "bytes32",
                    "name": "role",
                    "type": "bytes32"
                },
                {
                    "internalType": "address",
                    "name": "account",
                    "type": "address"
                }
            ],
            "name": "renounceRole",
            "outputs": [],
            "stateMutability": "nonpayable",
            "type": "function"
        },
        {
            "inputs": [
                {
                    "internalType": "address",
                    "name": "to",
                    "type": "address"
                }
            ],
            "name": "requestToken",
            "outputs": [],
            "stateMutability": "nonpayable",
            "type": "function"
        },
        {
            "inputs": [
                {
                    "internalType": "bytes32",
                    "name": "role",
                    "type": "bytes32"
                },
                {
                    "internalType": "address",
                    "name": "account",
                    "type": "address"
                }
            ],
            "name": "revokeRole",
            "outputs": [],
            "stateMutability": "nonpayable",
            "type": "function"
        },
        {
            "inputs": [
                {
                    "internalType": "bytes4",
                    "name": "interfaceId",
                    "type": "bytes4"
                }
            ],
            "name": "supportsInterface",
            "outputs": [
                {
                    "internalType": "bool",
                    "name": "",
                    "type": "bool"
                }
            ],
            "stateMutability": "view",
            "type": "function"
        },
        {
            "inputs": [],
            "name": "symbol",
            "outputs": [
                {
                    "internalType": "string",
                    "name": "",
                    "type": "string"
                }
            ],
            "stateMutability": "view",
            "type": "function"
        },
        {
            "inputs": [],
            "name": "totalSupply",
            "outputs": [
                {
                    "internalType": "uint256",
                    "name": "",
                    "type": "uint256"
                }
            ],
            "stateMutability": "view",
            "type": "function"
        },
        {
            "inputs": [
                {
                    "internalType": "address",
                    "name": "to",
                    "type": "address"
                },
                {
                    "internalType": "uint256",
                    "name": "amount",
                    "type": "uint256"
                }
            ],
            "name": "transfer",
            "outputs": [
                {
                    "internalType": "bool",
                    "name": "",
                    "type": "bool"
                }
            ],
            "stateMutability": "nonpayable",
            "type": "function"
        },
        {
            "inputs": [
                {
                    "internalType": "address",
                    "name": "from",
                    "type": "address"
                },
                {
                    "internalType": "address",
                    "name": "to",
                    "type": "address"
                },
                {
                    "internalType": "uint256",
                    "name": "amount",
                    "type": "uint256"
                }
            ],
            "name": "transferFrom",
            "outputs": [
                {
                    "internalType": "bool",
                    "name": "",
                    "type": "bool"
                }
            ],
            "stateMutability": "nonpayable",
            "type": "function"
        }
    ],
    "bytecode": "0x60806040523480156200001157600080fd5b506040518060400160405280600b81526020017f506972617465546f6b656e0000000000000000000000000000000000000000008152506040518060400160405280600381526020017f505254000000000000000000000000000000000000000000000000000000000081525081600390816200008f91906200068f565b508060049081620000a191906200068f565b505050620000e333620000b96200013060201b60201c565b600a620000c7919062000906565b620f4240620000d7919062000957565b6200013960201b60201c565b620000f86000801b33620002a660201b60201c565b6200012a7f9f2df0fed2c77648de5860a4cc508cd0818c85b8b8a1ab4ceeef8d981c8956a633620002a660201b60201c565b62000a8e565b60006012905090565b600073ffffffffffffffffffffffffffffffffffffffff168273ffffffffffffffffffffffffffffffffffffffff1603620001ab576040517f08c379a0000000000000000000000000000000000000000000000000000000008152600401620001a29062000a03565b60405180910390fd5b620001bf600083836200039860201b60201c565b8060026000828254620001d3919062000a25565b92505081905550806000808473ffffffffffffffffffffffffffffffffffffffff1673ffffffffffffffffffffffffffffffffffffffff168152602001908152602001600020600082825401925050819055508173ffffffffffffffffffffffffffffffffffffffff16600073ffffffffffffffffffffffffffffffffffffffff167fddf252ad1be2c89b69c2b068fc378daa952ba7f163c4a11628f55a4df523b3ef8360405162000286919062000a71565b60405180910390a3620002a2600083836200039d60201b60201c565b5050565b620002b88282620003a260201b60201c565b620003945760016005600084815260200190815260200160002060000160008373ffffffffffffffffffffffffffffffffffffffff1673ffffffffffffffffffffffffffffffffffffffff16815260200190815260200160002060006101000a81548160ff021916908315150217905550620003396200040d60201b60201c565b73ffffffffffffffffffffffffffffffffffffffff168173ffffffffffffffffffffffffffffffffffffffff16837f2f8788117e7eff1d82e926ec794901d17c78024a50270940304540a733656f0d60405160405180910390a45b5050565b505050565b505050565b60006005600084815260200190815260200160002060000160008373ffffffffffffffffffffffffffffffffffffffff1673ffffffffffffffffffffffffffffffffffffffff16815260200190815260200160002060009054906101000a900460ff16905092915050565b600033905090565b600081519050919050565b7f4e487b7100000000000000000000000000000000000000000000000000000000600052604160045260246000fd5b7f4e487b7100000000000000000000000000000000000000000000000000000000600052602260045260246000fd5b600060028204905060018216806200049757607f821691505b602082108103620004ad57620004ac6200044f565b5b50919050565b60008190508160005260206000209050919050565b60006020601f8301049050919050565b600082821b905092915050565b600060088302620005177fffffffffffffffffffffffffffffffffffffffffffffffffffffffffffffffff82620004d8565b620005238683620004d8565b95508019841693508086168417925050509392505050565b6000819050919050565b6000819050919050565b6000620005706200056a62000564846200053b565b62000545565b6200053b565b9050919050565b6000819050919050565b6200058c836200054f565b620005a46200059b8262000577565b848454620004e5565b825550505050565b600090565b620005bb620005ac565b620005c881848462000581565b505050565b5b81811015620005f057620005e4600082620005b1565b600181019050620005ce565b5050565b601f8211156200063f576200060981620004b3565b6200061484620004c8565b8101602085101562000624578190505b6200063c6200063385620004c8565b830182620005cd565b50505b505050565b600082821c905092915050565b6000620006646000198460080262000644565b1980831691505092915050565b60006200067f838362000651565b9150826002028217905092915050565b6200069a8262000415565b67ffffffffffffffff811115620006b657620006b562000420565b5b620006c282546200047e565b620006cf828285620005f4565b600060209050601f831160018114620007075760008415620006f2578287015190505b620006fe858262000671565b8655506200076e565b601f1984166200071786620004b3565b60005b8281101562000741578489015182556001820191506020850194506020810190506200071a565b868310156200076157848901516200075d601f89168262000651565b8355505b6001600288020188555050505b505050505050565b7f4e487b7100000000000000000000000000000000000000000000000000000000600052601160045260246000fd5b60008160011c9050919050565b6000808291508390505b60018511156200080457808604811115620007dc57620007db62000776565b5b6001851615620007ec5780820291505b8081029050620007fc85620007a5565b9450620007bc565b94509492505050565b6000826200081f5760019050620008f2565b816200082f5760009050620008f2565b8160018114620008485760028114620008535762000889565b6001915050620008f2565b60ff84111562000868576200086762000776565b5b8360020a91508482111562000882576200088162000776565b5b50620008f2565b5060208310610133831016604e8410600b8410161715620008c35782820a905083811115620008bd57620008bc62000776565b5b620008f2565b620008d28484846001620007b2565b92509050818404811115620008ec57620008eb62000776565b5b81810290505b9392505050565b600060ff82169050919050565b600062000913826200053b565b91506200092083620008f9565b92506200094f7fffffffffffffffffffffffffffffffffffffffffffffffffffffffffffffffff84846200080d565b905092915050565b600062000964826200053b565b915062000971836200053b565b925082820262000981816200053b565b915082820484148315176200099b576200099a62000776565b5b5092915050565b600082825260208201905092915050565b7f45524332303a206d696e7420746f20746865207a65726f206164647265737300600082015250565b6000620009eb601f83620009a2565b9150620009f882620009b3565b602082019050919050565b6000602082019050818103600083015262000a1e81620009dc565b9050919050565b600062000a32826200053b565b915062000a3f836200053b565b925082820190508082111562000a5a5762000a5962000776565b5b92915050565b62000a6b816200053b565b82525050565b600060208201905062000a88600083018462000a60565b92915050565b6122cc8062000a9e6000396000f3fe608060405234801561001057600080fd5b50600436106101425760003560e01c806370480275116100b8578063a217fddf1161007c578063a217fddf1461039b578063a457c2d7146103b9578063a9059cbb146103e9578063d539139314610419578063d547741f14610437578063dd62ed3e1461045357610142565b806370480275146102e557806370a082311461030157806391d148541461033157806395d89b4114610361578063a037eca91461037f57610142565b8063248a9ca31161010a578063248a9ca3146102135780632f2ff15d14610243578063313ce5671461025f57806336568abe1461027d578063395093511461029957806340c10f19146102c957610142565b806301ffc9a71461014757806306fdde0314610177578063095ea7b31461019557806318160ddd146101c557806323b872dd146101e3575b600080fd5b610161600480360381019061015c9190611677565b610483565b60405161016e91906116bf565b60405180910390f35b61017f6104fd565b60405161018c919061176a565b60405180910390f35b6101af60048036038101906101aa9190611820565b61058f565b6040516101bc91906116bf565b60405180910390f35b6101cd6105b2565b6040516101da919061186f565b60405180910390f35b6101fd60048036038101906101f8919061188a565b6105bc565b60405161020a91906116bf565b60405180910390f35b61022d60048036038101906102289190611913565b6105eb565b60405161023a919061194f565b60405180910390f35b61025d6004803603810190610258919061196a565b61060b565b005b61026761062c565b60405161027491906119c6565b60405180910390f35b6102976004803603810190610292919061196a565b610635565b005b6102b360048036038101906102ae9190611820565b6106b8565b6040516102c091906116bf565b60405180910390f35b6102e360048036038101906102de9190611820565b6106ef565b005b6102ff60048036038101906102fa91906119e1565b610728565b005b61031b600480360381019061031691906119e1565b610780565b604051610328919061186f565b60405180910390f35b61034b6004803603810190610346919061196a565b6107c8565b60405161035891906116bf565b60405180910390f35b610369610833565b604051610376919061176a565b60405180910390f35b610399600480360381019061039491906119e1565b6108c5565b005b6103a361094b565b6040516103b0919061194f565b60405180910390f35b6103d360048036038101906103ce9190611820565b610952565b6040516103e091906116bf565b60405180910390f35b61040360048036038101906103fe9190611820565b6109c9565b60405161041091906116bf565b60405180910390f35b6104216109ec565b60405161042e919061194f565b60405180910390f35b610451600480360381019061044c919061196a565b610a10565b005b61046d60048036038101906104689190611a0e565b610a31565b60405161047a919061186f565b60405180910390f35b60007f7965db0b000000000000000000000000000000000000000000000000000000007bffffffffffffffffffffffffffffffffffffffffffffffffffffffff1916827bffffffffffffffffffffffffffffffffffffffffffffffffffffffff191614806104f657506104f582610ab8565b5b9050919050565b60606003805461050c90611a7d565b80601f016020809104026020016040519081016040528092919081815260200182805461053890611a7d565b80156105855780601f1061055a57610100808354040283529160200191610585565b820191906000526020600020905b81548152906001019060200180831161056857829003601f168201915b5050505050905090565b60008061059a610b22565b90506105a7818585610b2a565b600191505092915050565b6000600254905090565b6000806105c7610b22565b90506105d4858285610cf3565b6105df858585610d7f565b60019150509392505050565b600060056000838152602001908152602001600020600101549050919050565b610614826105eb565b61061d81610ff5565b6106278383611009565b505050565b60006012905090565b61063d610b22565b73ffffffffffffffffffffffffffffffffffffffff168173ffffffffffffffffffffffffffffffffffffffff16146106aa576040517f08c379a00000000000000000000000000000000000000000000000000000000081526004016106a190611b20565b60405180910390fd5b6106b482826110ea565b5050565b6000806106c3610b22565b90506106e48185856106d58589610a31565b6106df9190611b6f565b610b2a565b600191505092915050565b7f9f2df0fed2c77648de5860a4cc508cd0818c85b8b8a1ab4ceeef8d981c8956a661071981610ff5565b61072383836111cc565b505050565b7f9f2df0fed2c77648de5860a4cc508cd0818c85b8b8a1ab4ceeef8d981c8956a661075281610ff5565b61077c7f9f2df0fed2c77648de5860a4cc508cd0818c85b8b8a1ab4ceeef8d981c8956a683611009565b5050565b60008060008373ffffffffffffffffffffffffffffffffffffffff1673ffffffffffffffffffffffffffffffffffffffff168152602001908152602001600020549050919050565b60006005600084815260200190815260200160002060000160008373ffffffffffffffffffffffffffffffffffffffff1673ffffffffffffffffffffffffffffffffffffffff16815260200190815260200160002060009054906101000a900460ff16905092915050565b60606004805461084290611a7d565b80601f016020809104026020016040519081016040528092919081815260200182805461086e90611a7d565b80156108bb5780601f10610890576101008083540402835291602001916108bb565b820191906000526020600020905b81548152906001019060200180831161089e57829003601f168201915b5050505050905090565b7f9f2df0fed2c77648de5860a4cc508cd0818c85b8b8a1ab4ceeef8d981c8956a66108ef81610ff5565b60016108fa83610780565b111561093b576040517f08c379a000000000000000000000000000000000000000000000000000000000815260040161093290611bef565b60405180910390fd5b6109468260016109c9565b505050565b6000801b81565b60008061095d610b22565b9050600061096b8286610a31565b9050838110156109b0576040517f08c379a00000000000000000000000000000000000000000000000000000000081526004016109a790611c81565b60405180910390fd5b6109bd8286868403610b2a565b60019250505092915050565b6000806109d4610b22565b90506109e1818585610d7f565b600191505092915050565b7f9f2df0fed2c77648de5860a4cc508cd0818c85b8b8a1ab4ceeef8d981c8956a681565b610a19826105eb565b610a2281610ff5565b610a2c83836110ea565b505050565b6000600160008473ffffffffffffffffffffffffffffffffffffffff1673ffffffffffffffffffffffffffffffffffffffff16815260200190815260200160002060008373ffffffffffffffffffffffffffffffffffffffff1673ffffffffffffffffffffffffffffffffffffffff16815260200190815260200160002054905092915050565b60007f01ffc9a7000000000000000000000000000000000000000000000000000000007bffffffffffffffffffffffffffffffffffffffffffffffffffffffff1916827bffffffffffffffffffffffffffffffffffffffffffffffffffffffff1916149050919050565b600033905090565b600073ffffffffffffffffffffffffffffffffffffffff168373ffffffffffffffffffffffffffffffffffffffff1603610b99576040517f08c379a0000000000000000000000000000000000000000000000000000000008152600401610b9090611d13565b60405180910390fd5b600073ffffffffffffffffffffffffffffffffffffffff168273ffffffffffffffffffffffffffffffffffffffff1603610c08576040517f08c379a0000000000000000000000000000000000000000000000000000000008152600401610bff90611da5565b60405180910390fd5b80600160008573ffffffffffffffffffffffffffffffffffffffff1673ffffffffffffffffffffffffffffffffffffffff16815260200190815260200160002060008473ffffffffffffffffffffffffffffffffffffffff1673ffffffffffffffffffffffffffffffffffffffff168152602001908152602001600020819055508173ffffffffffffffffffffffffffffffffffffffff168373ffffffffffffffffffffffffffffffffffffffff167f8c5be1e5ebec7d5bd14f71427d1e84f3dd0314c0f7b2291e5b200ac8c7c3b92583604051610ce6919061186f565b60405180910390a3505050565b6000610cff8484610a31565b90507fffffffffffffffffffffffffffffffffffffffffffffffffffffffffffffffff8114610d795781811015610d6b576040517f08c379a0000000000000000000000000000000000000000000000000000000008152600401610d6290611e11565b60405180910390fd5b610d788484848403610b2a565b5b50505050565b600073ffffffffffffffffffffffffffffffffffffffff168373ffffffffffffffffffffffffffffffffffffffff1603610dee576040517f08c379a0000000000000000000000000000000000000000000000000000000008152600401610de590611ea3565b60405180910390fd5b600073ffffffffffffffffffffffffffffffffffffffff168273ffffffffffffffffffffffffffffffffffffffff1603610e5d576040517f08c379a0000000000000000000000000000000000000000000000000000000008152600401610e5490611f35565b60405180910390fd5b610e68838383611322565b60008060008573ffffffffffffffffffffffffffffffffffffffff1673ffffffffffffffffffffffffffffffffffffffff16815260200190815260200160002054905081811015610eee576040517f08c379a0000000000000000000000000000000000000000000000000000000008152600401610ee590611fc7565b60405180910390fd5b8181036000808673ffffffffffffffffffffffffffffffffffffffff1673ffffffffffffffffffffffffffffffffffffffff16815260200190815260200160002081905550816000808573ffffffffffffffffffffffffffffffffffffffff1673ffffffffffffffffffffffffffffffffffffffff168152602001908152602001600020600082825401925050819055508273ffffffffffffffffffffffffffffffffffffffff168473ffffffffffffffffffffffffffffffffffffffff167fddf252ad1be2c89b69c2b068fc378daa952ba7f163c4a11628f55a4df523b3ef84604051610fdc919061186f565b60405180910390a3610fef848484611327565b50505050565b61100681611001610b22565b61132c565b50565b61101382826107c8565b6110e65760016005600084815260200190815260200160002060000160008373ffffffffffffffffffffffffffffffffffffffff1673ffffffffffffffffffffffffffffffffffffffff16815260200190815260200160002060006101000a81548160ff02191690831515021790555061108b610b22565b73ffffffffffffffffffffffffffffffffffffffff168173ffffffffffffffffffffffffffffffffffffffff16837f2f8788117e7eff1d82e926ec794901d17c78024a50270940304540a733656f0d60405160405180910390a45b5050565b6110f482826107c8565b156111c85760006005600084815260200190815260200160002060000160008373ffffffffffffffffffffffffffffffffffffffff1673ffffffffffffffffffffffffffffffffffffffff16815260200190815260200160002060006101000a81548160ff02191690831515021790555061116d610b22565b73ffffffffffffffffffffffffffffffffffffffff168173ffffffffffffffffffffffffffffffffffffffff16837ff6391f5c32d9c69d2a47ea670b442974b53935d1edc7fd64eb21e047a839171b60405160405180910390a45b5050565b600073ffffffffffffffffffffffffffffffffffffffff168273ffffffffffffffffffffffffffffffffffffffff160361123b576040517f08c379a000000000000000000000000000000000000000000000000000000000815260040161123290612033565b60405180910390fd5b61124760008383611322565b80600260008282546112599190611b6f565b92505081905550806000808473ffffffffffffffffffffffffffffffffffffffff1673ffffffffffffffffffffffffffffffffffffffff168152602001908152602001600020600082825401925050819055508173ffffffffffffffffffffffffffffffffffffffff16600073ffffffffffffffffffffffffffffffffffffffff167fddf252ad1be2c89b69c2b068fc378daa952ba7f163c4a11628f55a4df523b3ef8360405161130a919061186f565b60405180910390a361131e60008383611327565b5050565b505050565b505050565b61133682826107c8565b6113ad57611343816113b1565b6113518360001c60206113de565b604051602001611362929190612127565b6040516020818303038152906040526040517f08c379a00000000000000000000000000000000000000000000000000000000081526004016113a4919061176a565b60405180910390fd5b5050565b60606113d78273ffffffffffffffffffffffffffffffffffffffff16601460ff166113de565b9050919050565b6060600060028360026113f19190612161565b6113fb9190611b6f565b67ffffffffffffffff811115611414576114136121a3565b5b6040519080825280601f01601f1916602001820160405280156114465781602001600182028036833780820191505090505b5090507f30000000000000000000000000000000000000000000000000000000000000008160008151811061147e5761147d6121d2565b5b60200101907effffffffffffffffffffffffffffffffffffffffffffffffffffffffffffff1916908160001a9053507f7800000000000000000000000000000000000000000000000000000000000000816001815181106114e2576114e16121d2565b5b60200101907effffffffffffffffffffffffffffffffffffffffffffffffffffffffffffff1916908160001a905350600060018460026115229190612161565b61152c9190611b6f565b90505b60018111156115cc577f3031323334353637383961626364656600000000000000000000000000000000600f86166010811061156e5761156d6121d2565b5b1a60f81b828281518110611585576115846121d2565b5b60200101907effffffffffffffffffffffffffffffffffffffffffffffffffffffffffffff1916908160001a905350600485901c9450806115c590612201565b905061152f565b5060008414611610576040517f08c379a000000000000000000000000000000000000000000000000000000000815260040161160790612276565b60405180910390fd5b8091505092915050565b600080fd5b60007fffffffff0000000000000000000000000000000000000000000000000000000082169050919050565b6116548161161f565b811461165f57600080fd5b50565b6000813590506116718161164b565b92915050565b60006020828403121561168d5761168c61161a565b5b600061169b84828501611662565b91505092915050565b60008115159050919050565b6116b9816116a4565b82525050565b60006020820190506116d460008301846116b0565b92915050565b600081519050919050565b600082825260208201905092915050565b60005b838110156117145780820151818401526020810190506116f9565b60008484015250505050565b6000601f19601f8301169050919050565b600061173c826116da565b61174681856116e5565b93506117568185602086016116f6565b61175f81611720565b840191505092915050565b600060208201905081810360008301526117848184611731565b905092915050565b600073ffffffffffffffffffffffffffffffffffffffff82169050919050565b60006117b78261178c565b9050919050565b6117c7816117ac565b81146117d257600080fd5b50565b6000813590506117e4816117be565b92915050565b6000819050919050565b6117fd816117ea565b811461180857600080fd5b50565b60008135905061181a816117f4565b92915050565b600080604083850312156118375761183661161a565b5b6000611845858286016117d5565b92505060206118568582860161180b565b9150509250929050565b611869816117ea565b82525050565b60006020820190506118846000830184611860565b92915050565b6000806000606084860312156118a3576118a261161a565b5b60006118b1868287016117d5565b93505060206118c2868287016117d5565b92505060406118d38682870161180b565b9150509250925092565b6000819050919050565b6118f0816118dd565b81146118fb57600080fd5b50565b60008135905061190d816118e7565b92915050565b6000602082840312156119295761192861161a565b5b6000611937848285016118fe565b91505092915050565b611949816118dd565b82525050565b60006020820190506119646000830184611940565b92915050565b600080604083850312156119815761198061161a565b5b600061198f858286016118fe565b92505060206119a0858286016117d5565b9150509250929050565b600060ff82169050919050565b6119c0816119aa565b82525050565b60006020820190506119db60008301846119b7565b92915050565b6000602082840312156119f7576119f661161a565b5b6000611a05848285016117d5565b91505092915050565b60008060408385031215611a2557611a2461161a565b5b6000611a33858286016117d5565b9250506020611a44858286016117d5565b9150509250929050565b7f4e487b7100000000000000000000000000000000000000000000000000000000600052602260045260246000fd5b60006002820490506001821680611a9557607f821691505b602082108103611aa857611aa7611a4e565b5b50919050565b7f416363657373436f6e74726f6c3a2063616e206f6e6c792072656e6f756e636560008201527f20726f6c657320666f722073656c660000000000000000000000000000000000602082015250565b6000611b0a602f836116e5565b9150611b1582611aae565b604082019050919050565b60006020820190508181036000830152611b3981611afd565b9050919050565b7f4e487b7100000000000000000000000000000000000000000000000000000000600052601160045260246000fd5b6000611b7a826117ea565b9150611b85836117ea565b9250828201905080821115611b9d57611b9c611b40565b5b92915050565b7f506c65617365207573652070726576696f757320636f696e732e2e2100000000600082015250565b6000611bd9601c836116e5565b9150611be482611ba3565b602082019050919050565b60006020820190508181036000830152611c0881611bcc565b9050919050565b7f45524332303a2064656372656173656420616c6c6f77616e63652062656c6f7760008201527f207a65726f000000000000000000000000000000000000000000000000000000602082015250565b6000611c6b6025836116e5565b9150611c7682611c0f565b604082019050919050565b60006020820190508181036000830152611c9a81611c5e565b9050919050565b7f45524332303a20617070726f76652066726f6d20746865207a65726f2061646460008201527f7265737300000000000000000000000000000000000000000000000000000000602082015250565b6000611cfd6024836116e5565b9150611d0882611ca1565b604082019050919050565b60006020820190508181036000830152611d2c81611cf0565b9050919050565b7f45524332303a20617070726f766520746f20746865207a65726f20616464726560008201527f7373000000000000000000000000000000000000000000000000000000000000602082015250565b6000611d8f6022836116e5565b9150611d9a82611d33565b604082019050919050565b60006020820190508181036000830152611dbe81611d82565b9050919050565b7f45524332303a20696e73756666696369656e7420616c6c6f77616e6365000000600082015250565b6000611dfb601d836116e5565b9150611e0682611dc5565b602082019050919050565b60006020820190508181036000830152611e2a81611dee565b9050919050565b7f45524332303a207472616e736665722066726f6d20746865207a65726f20616460008201527f6472657373000000000000000000000000000000000000000000000000000000602082015250565b6000611e8d6025836116e5565b9150611e9882611e31565b604082019050919050565b60006020820190508181036000830152611ebc81611e80565b9050919050565b7f45524332303a207472616e7366657220746f20746865207a65726f206164647260008201527f6573730000000000000000000000000000000000000000000000000000000000602082015250565b6000611f1f6023836116e5565b9150611f2a82611ec3565b604082019050919050565b60006020820190508181036000830152611f4e81611f12565b9050919050565b7f45524332303a207472616e7366657220616d6f756e742065786365656473206260008201527f616c616e63650000000000000000000000000000000000000000000000000000602082015250565b6000611fb16026836116e5565b9150611fbc82611f55565b604082019050919050565b60006020820190508181036000830152611fe081611fa4565b9050919050565b7f45524332303a206d696e7420746f20746865207a65726f206164647265737300600082015250565b600061201d601f836116e5565b915061202882611fe7565b602082019050919050565b6000602082019050818103600083015261204c81612010565b9050919050565b600081905092915050565b7f416363657373436f6e74726f6c3a206163636f756e7420000000000000000000600082015250565b6000612094601783612053565b915061209f8261205e565b601782019050919050565b60006120b5826116da565b6120bf8185612053565b93506120cf8185602086016116f6565b80840191505092915050565b7f206973206d697373696e6720726f6c6520000000000000000000000000000000600082015250565b6000612111601183612053565b915061211c826120db565b601182019050919050565b600061213282612087565b915061213e82856120aa565b915061214982612104565b915061215582846120aa565b91508190509392505050565b600061216c826117ea565b9150612177836117ea565b9250828202612185816117ea565b9150828204841483151761219c5761219b611b40565b5b5092915050565b7f4e487b7100000000000000000000000000000000000000000000000000000000600052604160045260246000fd5b7f4e487b7100000000000000000000000000000000000000000000000000000000600052603260045260246000fd5b600061220c826117ea565b91506000820361221f5761221e611b40565b5b600182039050919050565b7f537472696e67733a20686578206c656e67746820696e73756666696369656e74600082015250565b60006122606020836116e5565b915061226b8261222a565b602082019050919050565b6000602082019050818103600083015261228f81612253565b905091905056fea26469706673582212209701a67b7296170c3b9ddafb05177cb39be0cea680cbd844294cdcb388f9d1c464736f6c63430008110033",
    "linkReferences": {},
    "deployedLinkReferences": {}
}